{
  "contractName": "ERC20",
  "abi": [
    {
      "inputs": [
        {
          "internalType": "string",
          "name": "name_",
          "type": "string"
        },
        {
          "internalType": "string",
          "name": "symbol_",
          "type": "string"
        },
        {
          "internalType": "uint8",
          "name": "decimals_",
          "type": "uint8"
        },
        {
          "internalType": "uint256",
          "name": "totalSupply_",
          "type": "uint256"
        }
      ],
      "stateMutability": "nonpayable",
      "type": "constructor"
    },
    {
      "anonymous": false,
      "inputs": [
        {
          "indexed": true,
          "internalType": "address",
          "name": "owner",
          "type": "address"
        },
        {
          "indexed": true,
          "internalType": "address",
          "name": "spender",
          "type": "address"
        },
        {
          "indexed": false,
          "internalType": "uint256",
          "name": "value",
          "type": "uint256"
        }
      ],
      "name": "Approval",
      "type": "event"
    },
    {
      "anonymous": false,
      "inputs": [
        {
          "indexed": true,
          "internalType": "address",
          "name": "from",
          "type": "address"
        },
        {
          "indexed": true,
          "internalType": "address",
          "name": "to",
          "type": "address"
        },
        {
          "indexed": false,
          "internalType": "uint256",
          "name": "value",
          "type": "uint256"
        }
      ],
      "name": "Transfer",
      "type": "event"
    },
    {
      "inputs": [],
      "name": "name",
      "outputs": [
        {
          "internalType": "string",
          "name": "",
          "type": "string"
        }
      ],
      "stateMutability": "view",
      "type": "function",
      "constant": true
    },
    {
      "inputs": [],
      "name": "symbol",
      "outputs": [
        {
          "internalType": "string",
          "name": "",
          "type": "string"
        }
      ],
      "stateMutability": "view",
      "type": "function",
      "constant": true
    },
    {
      "inputs": [],
      "name": "decimals",
      "outputs": [
        {
          "internalType": "uint8",
          "name": "",
          "type": "uint8"
        }
      ],
      "stateMutability": "view",
      "type": "function",
      "constant": true
    },
    {
      "inputs": [],
      "name": "totalSupply",
      "outputs": [
        {
          "internalType": "uint256",
          "name": "",
          "type": "uint256"
        }
      ],
      "stateMutability": "view",
      "type": "function",
      "constant": true
    },
    {
      "inputs": [
        {
          "internalType": "address",
          "name": "account",
          "type": "address"
        }
      ],
      "name": "balanceOf",
      "outputs": [
        {
          "internalType": "uint256",
          "name": "",
          "type": "uint256"
        }
      ],
      "stateMutability": "view",
      "type": "function",
      "constant": true
    },
    {
      "inputs": [
        {
          "internalType": "address",
          "name": "to",
          "type": "address"
        },
        {
          "internalType": "uint256",
          "name": "amount",
          "type": "uint256"
        }
      ],
      "name": "transfer",
      "outputs": [
        {
          "internalType": "bool",
          "name": "",
          "type": "bool"
        }
      ],
      "stateMutability": "nonpayable",
      "type": "function"
    },
    {
      "inputs": [
        {
          "internalType": "address",
          "name": "owner",
          "type": "address"
        },
        {
          "internalType": "address",
          "name": "spender",
          "type": "address"
        }
      ],
      "name": "allowance",
      "outputs": [
        {
          "internalType": "uint256",
          "name": "",
          "type": "uint256"
        }
      ],
      "stateMutability": "view",
      "type": "function",
      "constant": true
    },
    {
      "inputs": [
        {
          "internalType": "address",
          "name": "spender",
          "type": "address"
        },
        {
          "internalType": "uint256",
          "name": "amount",
          "type": "uint256"
        }
      ],
      "name": "approve",
      "outputs": [
        {
          "internalType": "bool",
          "name": "",
          "type": "bool"
        }
      ],
      "stateMutability": "nonpayable",
      "type": "function"
    },
    {
      "inputs": [
        {
          "internalType": "address",
          "name": "from",
          "type": "address"
        },
        {
          "internalType": "address",
          "name": "to",
          "type": "address"
        },
        {
          "internalType": "uint256",
          "name": "amount",
          "type": "uint256"
        }
      ],
      "name": "transferFrom",
      "outputs": [
        {
          "internalType": "bool",
          "name": "",
          "type": "bool"
        }
      ],
      "stateMutability": "nonpayable",
      "type": "function"
    },
    {
      "inputs": [
        {
          "internalType": "address",
          "name": "spender",
          "type": "address"
        },
        {
          "internalType": "uint256",
          "name": "addedValue",
          "type": "uint256"
        }
      ],
      "name": "increaseAllowance",
      "outputs": [
        {
          "internalType": "bool",
          "name": "",
          "type": "bool"
        }
      ],
      "stateMutability": "nonpayable",
      "type": "function"
    },
    {
      "inputs": [
        {
          "internalType": "address",
          "name": "spender",
          "type": "address"
        },
        {
          "internalType": "uint256",
          "name": "subtractedValue",
          "type": "uint256"
        }
      ],
      "name": "decreaseAllowance",
      "outputs": [
        {
          "internalType": "bool",
          "name": "",
          "type": "bool"
        }
      ],
      "stateMutability": "nonpayable",
      "type": "function"
    },
    {
      "inputs": [
        {
          "internalType": "address",
          "name": "account",
          "type": "address"
        },
        {
          "internalType": "uint256",
          "name": "amount",
          "type": "uint256"
        }
      ],
      "name": "_mint",
      "outputs": [],
      "stateMutability": "nonpayable",
      "type": "function"
    }
  ],
  "bytecode": "0x60806040523480156200001157600080fd5b506040516200189b3803806200189b8339818101604052810190620000379190620001de565b83600290805190602001906200004f9291906200008e565b508260039080519060200190620000689291906200008e565b5081600460006101000a81548160ff021916908360ff1602179055505050505062000437565b8280546200009c9062000328565b90600052602060002090601f016020900481019282620000c057600085556200010c565b82601f10620000db57805160ff19168380011785556200010c565b828001600101855582156200010c579182015b828111156200010b578251825591602001919060010190620000ee565b5b5090506200011b91906200011f565b5090565b5b808211156200013a57600081600090555060010162000120565b5090565b6000620001556200014f84620002a5565b6200027c565b9050828152602081018484840111156200016e57600080fd5b6200017b848285620002f2565b509392505050565b600082601f8301126200019557600080fd5b8151620001a78482602086016200013e565b91505092915050565b600081519050620001c18162000403565b92915050565b600081519050620001d8816200041d565b92915050565b60008060008060808587031215620001f557600080fd5b600085015167ffffffffffffffff8111156200021057600080fd5b6200021e8782880162000183565b945050602085015167ffffffffffffffff8111156200023c57600080fd5b6200024a8782880162000183565b93505060406200025d87828801620001c7565b92505060606200027087828801620001b0565b91505092959194509250565b6000620002886200029b565b90506200029682826200035e565b919050565b6000604051905090565b600067ffffffffffffffff821115620002c357620002c2620003c3565b5b620002ce82620003f2565b9050602081019050919050565b6000819050919050565b600060ff82169050919050565b60005b8381101562000312578082015181840152602081019050620002f5565b8381111562000322576000848401525b50505050565b600060028204905060018216806200034157607f821691505b6020821081141562000358576200035762000394565b5b50919050565b6200036982620003f2565b810181811067ffffffffffffffff821117156200038b576200038a620003c3565b5b80604052505050565b7f4e487b7100000000000000000000000000000000000000000000000000000000600052602260045260246000fd5b7f4e487b7100000000000000000000000000000000000000000000000000000000600052604160045260246000fd5b6000601f19601f8301169050919050565b6200040e81620002db565b81146200041a57600080fd5b50565b6200042881620002e5565b81146200043457600080fd5b50565b61145480620004476000396000f3fe608060405234801561001057600080fd5b50600436106100b45760003560e01c80634e6ec247116100715780634e6ec247146101a357806370a08231146101bf57806395d89b41146101ef578063a457c2d71461020d578063a9059cbb1461023d578063dd62ed3e1461026d576100b4565b806306fdde03146100b9578063095ea7b3146100d757806318160ddd1461010757806323b872dd14610125578063313ce567146101555780633950935114610173575b600080fd5b6100c161029d565b6040516100ce9190610ed1565b60405180910390f35b6100f160048036038101906100ec9190610cfc565b61032f565b6040516100fe9190610eb6565b60405180910390f35b61010f610352565b60405161011c9190610ff3565b60405180910390f35b61013f600480360381019061013a9190610cad565b61035c565b60405161014c9190610eb6565b60405180910390f35b61015d61038b565b60405161016a919061100e565b60405180910390f35b61018d60048036038101906101889190610cfc565b6103a2565b60405161019a9190610eb6565b60405180910390f35b6101bd60048036038101906101b89190610cfc565b6103d9565b005b6101d960048036038101906101d49190610c48565b610539565b6040516101e69190610ff3565b60405180910390f35b6101f7610581565b6040516102049190610ed1565b60405180910390f35b61022760048036038101906102229190610cfc565b610613565b6040516102349190610eb6565b60405180910390f35b61025760048036038101906102529190610cfc565b61068a565b6040516102649190610eb6565b60405180910390f35b61028760048036038101906102829190610c71565b6106ad565b6040516102949190610ff3565b60405180910390f35b6060600280546102ac90611123565b80601f01602080910402602001604051908101604052809291908181526020018280546102d890611123565b80156103255780601f106102fa57610100808354040283529160200191610325565b820191906000526020600020905b81548152906001019060200180831161030857829003601f168201915b5050505050905090565b60008061033a610734565b905061034781858561073c565b600191505092915050565b6000600554905090565b600080610367610734565b9050610374858285610907565b61037f858585610993565b60019150509392505050565b6000600460009054906101000a900460ff16905090565b6000806103ad610734565b90506103ce8185856103bf85896106ad565b6103c99190611045565b61073c565b600191505092915050565b600073ffffffffffffffffffffffffffffffffffffffff168273ffffffffffffffffffffffffffffffffffffffff161415610449576040517f08c379a000000000000000000000000000000000000000000000000000000000815260040161044090610fd3565b60405180910390fd5b61045560008383610c14565b80600560008282546104679190611045565b92505081905550806000808473ffffffffffffffffffffffffffffffffffffffff1673ffffffffffffffffffffffffffffffffffffffff16815260200190815260200160002060008282546104bc9190611045565b925050819055508173ffffffffffffffffffffffffffffffffffffffff16600073ffffffffffffffffffffffffffffffffffffffff167fddf252ad1be2c89b69c2b068fc378daa952ba7f163c4a11628f55a4df523b3ef836040516105219190610ff3565b60405180910390a361053560008383610c19565b5050565b60008060008373ffffffffffffffffffffffffffffffffffffffff1673ffffffffffffffffffffffffffffffffffffffff168152602001908152602001600020549050919050565b60606003805461059090611123565b80601f01602080910402602001604051908101604052809291908181526020018280546105bc90611123565b80156106095780601f106105de57610100808354040283529160200191610609565b820191906000526020600020905b8154815290600101906020018083116105ec57829003601f168201915b5050505050905090565b60008061061e610734565b9050600061062c82866106ad565b905083811015610671576040517f08c379a000000000000000000000000000000000000000000000000000000000815260040161066890610fb3565b60405180910390fd5b61067e828686840361073c565b60019250505092915050565b600080610695610734565b90506106a2818585610993565b600191505092915050565b6000600160008473ffffffffffffffffffffffffffffffffffffffff1673ffffffffffffffffffffffffffffffffffffffff16815260200190815260200160002060008373ffffffffffffffffffffffffffffffffffffffff1673ffffffffffffffffffffffffffffffffffffffff16815260200190815260200160002054905092915050565b600033905090565b600073ffffffffffffffffffffffffffffffffffffffff168373ffffffffffffffffffffffffffffffffffffffff1614156107ac576040517f08c379a00000000000000000000000000000000000000000000000000000000081526004016107a390610f93565b60405180910390fd5b600073ffffffffffffffffffffffffffffffffffffffff168273ffffffffffffffffffffffffffffffffffffffff16141561081c576040517f08c379a000000000000000000000000000000000000000000000000000000000815260040161081390610f13565b60405180910390fd5b80600160008573ffffffffffffffffffffffffffffffffffffffff1673ffffffffffffffffffffffffffffffffffffffff16815260200190815260200160002060008473ffffffffffffffffffffffffffffffffffffffff1673ffffffffffffffffffffffffffffffffffffffff168152602001908152602001600020819055508173ffffffffffffffffffffffffffffffffffffffff168373ffffffffffffffffffffffffffffffffffffffff167f8c5be1e5ebec7d5bd14f71427d1e84f3dd0314c0f7b2291e5b200ac8c7c3b925836040516108fa9190610ff3565b60405180910390a3505050565b600061091384846106ad565b90507fffffffffffffffffffffffffffffffffffffffffffffffffffffffffffffffff811461098d578181101561097f576040517f08c379a000000000000000000000000000000000000000000000000000000000815260040161097690610f33565b60405180910390fd5b61098c848484840361073c565b5b50505050565b600073ffffffffffffffffffffffffffffffffffffffff168373ffffffffffffffffffffffffffffffffffffffff161415610a03576040517f08c379a00000000000000000000000000000000000000000000000000000000081526004016109fa90610f73565b60405180910390fd5b600073ffffffffffffffffffffffffffffffffffffffff168273ffffffffffffffffffffffffffffffffffffffff161415610a73576040517f08c379a0000000000000000000000000000000000000000000000000000000008152600401610a6a90610ef3565b60405180910390fd5b610a7e838383610c14565b60008060008573ffffffffffffffffffffffffffffffffffffffff1673ffffffffffffffffffffffffffffffffffffffff16815260200190815260200160002054905081811015610b04576040517f08c379a0000000000000000000000000000000000000000000000000000000008152600401610afb90610f53565b60405180910390fd5b8181036000808673ffffffffffffffffffffffffffffffffffffffff1673ffffffffffffffffffffffffffffffffffffffff16815260200190815260200160002081905550816000808573ffffffffffffffffffffffffffffffffffffffff1673ffffffffffffffffffffffffffffffffffffffff1681526020019081526020016000206000828254610b979190611045565b925050819055508273ffffffffffffffffffffffffffffffffffffffff168473ffffffffffffffffffffffffffffffffffffffff167fddf252ad1be2c89b69c2b068fc378daa952ba7f163c4a11628f55a4df523b3ef84604051610bfb9190610ff3565b60405180910390a3610c0e848484610c19565b50505050565b505050565b505050565b600081359050610c2d816113f0565b92915050565b600081359050610c4281611407565b92915050565b600060208284031215610c5a57600080fd5b6000610c6884828501610c1e565b91505092915050565b60008060408385031215610c8457600080fd5b6000610c9285828601610c1e565b9250506020610ca385828601610c1e565b9150509250929050565b600080600060608486031215610cc257600080fd5b6000610cd086828701610c1e565b9350506020610ce186828701610c1e565b9250506040610cf286828701610c33565b9150509250925092565b60008060408385031215610d0f57600080fd5b6000610d1d85828601610c1e565b9250506020610d2e85828601610c33565b9150509250929050565b610d41816110ad565b82525050565b6000610d5282611029565b610d5c8185611034565b9350610d6c8185602086016110f0565b610d75816111b3565b840191505092915050565b6000610d8d602383611034565b9150610d98826111c4565b604082019050919050565b6000610db0602283611034565b9150610dbb82611213565b604082019050919050565b6000610dd3601d83611034565b9150610dde82611262565b602082019050919050565b6000610df6602683611034565b9150610e018261128b565b604082019050919050565b6000610e19602583611034565b9150610e24826112da565b604082019050919050565b6000610e3c602483611034565b9150610e4782611329565b604082019050919050565b6000610e5f602583611034565b9150610e6a82611378565b604082019050919050565b6000610e82601f83611034565b9150610e8d826113c7565b602082019050919050565b610ea1816110d9565b82525050565b610eb0816110e3565b82525050565b6000602082019050610ecb6000830184610d38565b92915050565b60006020820190508181036000830152610eeb8184610d47565b905092915050565b60006020820190508181036000830152610f0c81610d80565b9050919050565b60006020820190508181036000830152610f2c81610da3565b9050919050565b60006020820190508181036000830152610f4c81610dc6565b9050919050565b60006020820190508181036000830152610f6c81610de9565b9050919050565b60006020820190508181036000830152610f8c81610e0c565b9050919050565b60006020820190508181036000830152610fac81610e2f565b9050919050565b60006020820190508181036000830152610fcc81610e52565b9050919050565b60006020820190508181036000830152610fec81610e75565b9050919050565b60006020820190506110086000830184610e98565b92915050565b60006020820190506110236000830184610ea7565b92915050565b600081519050919050565b600082825260208201905092915050565b6000611050826110d9565b915061105b836110d9565b9250827fffffffffffffffffffffffffffffffffffffffffffffffffffffffffffffffff038211156110905761108f611155565b5b828201905092915050565b60006110a6826110b9565b9050919050565b60008115159050919050565b600073ffffffffffffffffffffffffffffffffffffffff82169050919050565b6000819050919050565b600060ff82169050919050565b60005b8381101561110e5780820151818401526020810190506110f3565b8381111561111d576000848401525b50505050565b6000600282049050600182168061113b57607f821691505b6020821081141561114f5761114e611184565b5b50919050565b7f4e487b7100000000000000000000000000000000000000000000000000000000600052601160045260246000fd5b7f4e487b7100000000000000000000000000000000000000000000000000000000600052602260045260246000fd5b6000601f19601f8301169050919050565b7f45524332303a207472616e7366657220746f20746865207a65726f206164647260008201527f6573730000000000000000000000000000000000000000000000000000000000602082015250565b7f45524332303a20617070726f766520746f20746865207a65726f20616464726560008201527f7373000000000000000000000000000000000000000000000000000000000000602082015250565b7f45524332303a20696e73756666696369656e7420616c6c6f77616e6365000000600082015250565b7f45524332303a207472616e7366657220616d6f756e742065786365656473206260008201527f616c616e63650000000000000000000000000000000000000000000000000000602082015250565b7f45524332303a207472616e736665722066726f6d20746865207a65726f20616460008201527f6472657373000000000000000000000000000000000000000000000000000000602082015250565b7f45524332303a20617070726f76652066726f6d20746865207a65726f2061646460008201527f7265737300000000000000000000000000000000000000000000000000000000602082015250565b7f45524332303a2064656372656173656420616c6c6f77616e63652062656c6f7760008201527f207a65726f000000000000000000000000000000000000000000000000000000602082015250565b7f45524332303a206d696e7420746f20746865207a65726f206164647265737300600082015250565b6113f98161109b565b811461140457600080fd5b50565b611410816110d9565b811461141b57600080fd5b5056fea2646970667358221220b0df1851e9801e848af2d0071868e58290551675843ec26833f9eda62d015b0464736f6c63430008010033",
  "immutableReferences": {},
  "source": "// SPDX-License-Identifier: MIT\r\npragma solidity ^0.8.0;\r\n\r\nimport \"./ERC20/IERC20.sol\";\r\nimport \"./ERC20/IERC20Metadata.sol\";\r\nimport \"./ERC20/Context.sol\";\r\n\r\ncontract ERC20 is Context, IERC20, IERC20Metadata {\r\n    mapping(address => uint256) private _balances;\r\n\r\n    mapping(address => mapping(address => uint256)) private _allowances;\r\n\r\n    string private _name;\r\n    string private _symbol;\r\n    uint8  private _decimals;\r\n    uint256 private _totalSupply;\r\n\r\n    constructor(string memory name_, string memory symbol_, uint8 decimals_, uint totalSupply_) {\r\n        _name = name_;\r\n        _symbol = symbol_;\r\n        _decimals = decimals_;\r\n        _totalSupply == totalSupply_;\r\n    }\r\n\r\n    function name() public view virtual override returns (string memory) {\r\n        return _name;\r\n    }\r\n    \r\n    function symbol() public view virtual override returns (string memory) {\r\n        return _symbol;\r\n    }\r\n\r\n    function decimals() public view virtual override returns (uint8) {\r\n        return _decimals;\r\n    }\r\n\r\n    function totalSupply() public view virtual override returns (uint256) {\r\n        return _totalSupply;\r\n    }\r\n\r\n    function balanceOf(address account) public view virtual override returns (uint256) {\r\n        return _balances[account];\r\n    }\r\n\r\n    function transfer(address to, uint256 amount) public virtual override returns (bool) {\r\n        address owner = _msgSender();\r\n        _transfer(owner, to, amount);\r\n        return true;\r\n    }\r\n\r\n    function allowance(address owner, address spender) public view virtual override returns (uint256) {\r\n        return _allowances[owner][spender];\r\n    }\r\n\r\n    function approve(address spender, uint256 amount) public virtual override returns (bool) {\r\n        address owner = _msgSender();\r\n        _approve(owner, spender, amount);\r\n        return true;\r\n    }\r\n\r\n    function transferFrom(\r\n        address from,\r\n        address to,\r\n        uint256 amount\r\n    ) public virtual override returns (bool) {\r\n        address spender = _msgSender();\r\n        _spendAllowance(from, spender, amount);\r\n        _transfer(from, to, amount);\r\n        return true;\r\n    }\r\n\r\n    function increaseAllowance(address spender, uint256 addedValue) public virtual returns (bool) {\r\n        address owner = _msgSender();\r\n        _approve(owner, spender, allowance(owner, spender) + addedValue);\r\n        return true;\r\n    }\r\n\r\n    function decreaseAllowance(address spender, uint256 subtractedValue) public virtual returns (bool) {\r\n        address owner = _msgSender();\r\n        uint256 currentAllowance = allowance(owner, spender);\r\n        require(currentAllowance >= subtractedValue, \"ERC20: decreased allowance below zero\");\r\n        unchecked {\r\n            _approve(owner, spender, currentAllowance - subtractedValue);\r\n        }\r\n\r\n        return true;\r\n    }\r\n\r\n    function _transfer(\r\n        address from,\r\n        address to,\r\n        uint256 amount\r\n    ) internal virtual {\r\n        require(from != address(0), \"ERC20: transfer from the zero address\");\r\n        require(to != address(0), \"ERC20: transfer to the zero address\");\r\n\r\n        _beforeTokenTransfer(from, to, amount);\r\n\r\n        uint256 fromBalance = _balances[from];\r\n        require(fromBalance >= amount, \"ERC20: transfer amount exceeds balance\");\r\n        unchecked {\r\n            _balances[from] = fromBalance - amount;\r\n        }\r\n        _balances[to] += amount;\r\n\r\n        emit Transfer(from, to, amount);\r\n\r\n        _afterTokenTransfer(from, to, amount);\r\n    }\r\n\r\n    function _mint(address account, uint256 amount) public {\r\n        require(account != address(0), \"ERC20: mint to the zero address\");\r\n\r\n        _beforeTokenTransfer(address(0), account, amount);\r\n\r\n        _totalSupply += amount;\r\n        _balances[account] += amount;\r\n        emit Transfer(address(0), account, amount);\r\n\r\n        _afterTokenTransfer(address(0), account, amount);\r\n    }\r\n\r\n    function _burn(address account, uint256 amount) internal virtual {\r\n        require(account != address(0), \"ERC20: burn from the zero address\");\r\n\r\n        _beforeTokenTransfer(account, address(0), amount);\r\n\r\n        uint256 accountBalance = _balances[account];\r\n        require(accountBalance >= amount, \"ERC20: burn amount exceeds balance\");\r\n        unchecked {\r\n            _balances[account] = accountBalance - amount;\r\n        }\r\n        _totalSupply -= amount;\r\n\r\n        emit Transfer(account, address(0), amount);\r\n\r\n        _afterTokenTransfer(account, address(0), amount);\r\n    }\r\n\r\n    function _approve(\r\n        address owner,\r\n        address spender,\r\n        uint256 amount\r\n    ) internal virtual {\r\n        require(owner != address(0), \"ERC20: approve from the zero address\");\r\n        require(spender != address(0), \"ERC20: approve to the zero address\");\r\n\r\n        _allowances[owner][spender] = amount;\r\n        emit Approval(owner, spender, amount);\r\n    }\r\n\r\n    function _spendAllowance(\r\n        address owner,\r\n        address spender,\r\n        uint256 amount\r\n    ) internal virtual {\r\n        uint256 currentAllowance = allowance(owner, spender);\r\n        if (currentAllowance != type(uint256).max) {\r\n            require(currentAllowance >= amount, \"ERC20: insufficient allowance\");\r\n            unchecked {\r\n                _approve(owner, spender, currentAllowance - amount);\r\n            }\r\n        }\r\n    }\r\n\r\n    function _beforeTokenTransfer(\r\n        address from,\r\n        address to,\r\n        uint256 amount\r\n    ) internal virtual {}\r\n\r\n    function _afterTokenTransfer(\r\n        address from,\r\n        address to,\r\n        uint256 amount\r\n    ) internal virtual {}\r\n}",
  "sourcePath": "D:\\3dHoudini\\contracts\\ERC20.sol",
  "compiler": {
    "name": "solc",
    "version": "0.8.1+commit.df193b15.Emscripten.clang"
  },
  "schemaVersion": "3.4.7",
  "updatedAt": "2022-07-06T06:30:52.713Z",
  "networkType": "ethereum",
  "devdoc": {
    "kind": "dev",
    "methods": {
      "allowance(address,address)": {
        "details": "Returns the remaining number of tokens that `spender` will be allowed to spend on behalf of `owner` through {transferFrom}. This is zero by default. This value changes when {approve} or {transferFrom} are called."
      },
      "approve(address,uint256)": {
        "details": "Sets `amount` as the allowance of `spender` over the caller's tokens. Returns a boolean value indicating whether the operation succeeded. IMPORTANT: Beware that changing an allowance with this method brings the risk that someone may use both the old and the new allowance by unfortunate transaction ordering. One possible solution to mitigate this race condition is to first reduce the spender's allowance to 0 and set the desired value afterwards: https://github.com/ethereum/EIPs/issues/20#issuecomment-263524729 Emits an {Approval} event."
      },
      "balanceOf(address)": {
        "details": "Returns the amount of tokens owned by `account`."
      },
      "decimals()": {
        "details": "Returns the decimals places of the token."
      },
      "name()": {
        "details": "Returns the name of the token."
      },
      "symbol()": {
        "details": "Returns the symbol of the token."
      },
      "totalSupply()": {
        "details": "Returns the amount of tokens in existence."
      },
      "transfer(address,uint256)": {
        "details": "Moves `amount` tokens from the caller's account to `to`. Returns a boolean value indicating whether the operation succeeded. Emits a {Transfer} event."
      },
      "transferFrom(address,address,uint256)": {
        "details": "Moves `amount` tokens from `from` to `to` using the allowance mechanism. `amount` is then deducted from the caller's allowance. Returns a boolean value indicating whether the operation succeeded. Emits a {Transfer} event."
      }
    },
    "version": 1
  },
  "userdoc": {
    "kind": "user",
    "methods": {},
    "version": 1
  }
}