{
  "contractName": "GLDToken",
  "abi": [
    {
      "inputs": [
        {
          "internalType": "uint256",
          "name": "initialSupply",
          "type": "uint256"
        }
      ],
      "stateMutability": "nonpayable",
      "type": "constructor"
    },
    {
      "anonymous": false,
      "inputs": [
        {
          "indexed": true,
          "internalType": "address",
          "name": "owner",
          "type": "address"
        },
        {
          "indexed": true,
          "internalType": "address",
          "name": "spender",
          "type": "address"
        },
        {
          "indexed": false,
          "internalType": "uint256",
          "name": "value",
          "type": "uint256"
        }
      ],
      "name": "Approval",
      "type": "event"
    },
    {
      "anonymous": false,
      "inputs": [
        {
          "indexed": true,
          "internalType": "address",
          "name": "from",
          "type": "address"
        },
        {
          "indexed": true,
          "internalType": "address",
          "name": "to",
          "type": "address"
        },
        {
          "indexed": false,
          "internalType": "uint256",
          "name": "value",
          "type": "uint256"
        }
      ],
      "name": "Transfer",
      "type": "event"
    },
    {
      "inputs": [],
      "name": "_initialSupply",
      "outputs": [
        {
          "internalType": "uint256",
          "name": "",
          "type": "uint256"
        }
      ],
      "stateMutability": "view",
      "type": "function",
      "constant": true
    },
    {
      "inputs": [
        {
          "internalType": "address",
          "name": "owner",
          "type": "address"
        },
        {
          "internalType": "address",
          "name": "spender",
          "type": "address"
        }
      ],
      "name": "allowance",
      "outputs": [
        {
          "internalType": "uint256",
          "name": "",
          "type": "uint256"
        }
      ],
      "stateMutability": "view",
      "type": "function",
      "constant": true
    },
    {
      "inputs": [
        {
          "internalType": "address",
          "name": "spender",
          "type": "address"
        },
        {
          "internalType": "uint256",
          "name": "amount",
          "type": "uint256"
        }
      ],
      "name": "approve",
      "outputs": [
        {
          "internalType": "bool",
          "name": "",
          "type": "bool"
        }
      ],
      "stateMutability": "nonpayable",
      "type": "function"
    },
    {
      "inputs": [
        {
          "internalType": "address",
          "name": "account",
          "type": "address"
        }
      ],
      "name": "balanceOf",
      "outputs": [
        {
          "internalType": "uint256",
          "name": "",
          "type": "uint256"
        }
      ],
      "stateMutability": "view",
      "type": "function",
      "constant": true
    },
    {
      "inputs": [],
      "name": "decimals",
      "outputs": [
        {
          "internalType": "uint8",
          "name": "",
          "type": "uint8"
        }
      ],
      "stateMutability": "view",
      "type": "function",
      "constant": true
    },
    {
      "inputs": [
        {
          "internalType": "address",
          "name": "spender",
          "type": "address"
        },
        {
          "internalType": "uint256",
          "name": "subtractedValue",
          "type": "uint256"
        }
      ],
      "name": "decreaseAllowance",
      "outputs": [
        {
          "internalType": "bool",
          "name": "",
          "type": "bool"
        }
      ],
      "stateMutability": "nonpayable",
      "type": "function"
    },
    {
      "inputs": [
        {
          "internalType": "address",
          "name": "spender",
          "type": "address"
        },
        {
          "internalType": "uint256",
          "name": "addedValue",
          "type": "uint256"
        }
      ],
      "name": "increaseAllowance",
      "outputs": [
        {
          "internalType": "bool",
          "name": "",
          "type": "bool"
        }
      ],
      "stateMutability": "nonpayable",
      "type": "function"
    },
    {
      "inputs": [],
      "name": "name",
      "outputs": [
        {
          "internalType": "string",
          "name": "",
          "type": "string"
        }
      ],
      "stateMutability": "view",
      "type": "function",
      "constant": true
    },
    {
      "inputs": [],
      "name": "owner",
      "outputs": [
        {
          "internalType": "address",
          "name": "",
          "type": "address"
        }
      ],
      "stateMutability": "view",
      "type": "function",
      "constant": true
    },
    {
      "inputs": [],
      "name": "symbol",
      "outputs": [
        {
          "internalType": "string",
          "name": "",
          "type": "string"
        }
      ],
      "stateMutability": "view",
      "type": "function",
      "constant": true
    },
    {
      "inputs": [],
      "name": "totalSupply",
      "outputs": [
        {
          "internalType": "uint256",
          "name": "",
          "type": "uint256"
        }
      ],
      "stateMutability": "view",
      "type": "function",
      "constant": true
    },
    {
      "inputs": [
        {
          "internalType": "address",
          "name": "to",
          "type": "address"
        },
        {
          "internalType": "uint256",
          "name": "amount",
          "type": "uint256"
        }
      ],
      "name": "transfer",
      "outputs": [
        {
          "internalType": "bool",
          "name": "",
          "type": "bool"
        }
      ],
      "stateMutability": "nonpayable",
      "type": "function"
    },
    {
      "inputs": [
        {
          "internalType": "address",
          "name": "from",
          "type": "address"
        },
        {
          "internalType": "address",
          "name": "to",
          "type": "address"
        },
        {
          "internalType": "uint256",
          "name": "amount",
          "type": "uint256"
        }
      ],
      "name": "transferFrom",
      "outputs": [
        {
          "internalType": "bool",
          "name": "",
          "type": "bool"
        }
      ],
      "stateMutability": "nonpayable",
      "type": "function"
    },
    {
      "inputs": [],
      "name": "mint",
      "outputs": [],
      "stateMutability": "nonpayable",
      "type": "function"
    },
    {
      "inputs": [],
      "name": "check_decimal",
      "outputs": [
        {
          "internalType": "uint256",
          "name": "",
          "type": "uint256"
        }
      ],
      "stateMutability": "nonpayable",
      "type": "function"
    }
  ],
  "bytecode": "0x60806040523480156200001157600080fd5b506040516200181e3803806200181e8339818101604052810190620000379190620001ed565b6040518060400160405280600481526020017f476f6c64000000000000000000000000000000000000000000000000000000008152506040518060400160405280600381526020017f474c4400000000000000000000000000000000000000000000000000000000008152508160039080519060200190620000bb92919062000126565b508060049080519060200190620000d492919062000126565b50505033600660006101000a81548173ffffffffffffffffffffffffffffffffffffffff021916908373ffffffffffffffffffffffffffffffffffffffff1602179055508060058190555050620002a2565b828054620001349062000223565b90600052602060002090601f016020900481019282620001585760008555620001a4565b82601f106200017357805160ff1916838001178555620001a4565b82800160010185558215620001a4579182015b82811115620001a357825182559160200191906001019062000186565b5b509050620001b39190620001b7565b5090565b5b80821115620001d2576000816000905550600101620001b8565b5090565b600081519050620001e78162000288565b92915050565b6000602082840312156200020057600080fd5b60006200021084828501620001d6565b91505092915050565b6000819050919050565b600060028204905060018216806200023c57607f821691505b6020821081141562000253576200025262000259565b5b50919050565b7f4e487b7100000000000000000000000000000000000000000000000000000000600052602260045260246000fd5b620002938162000219565b81146200029f57600080fd5b50565b61156c80620002b26000396000f3fe608060405234801561001057600080fd5b50600436106100f55760003560e01c806343a9623611610097578063a457c2d711610066578063a457c2d714610278578063a9059cbb146102a8578063c3b2d337146102d8578063dd62ed3e146102f6576100f5565b806343a96236146101ee57806370a082311461020c5780638da5cb5b1461023c57806395d89b411461025a576100f5565b806318160ddd116100d357806318160ddd1461015257806323b872dd14610170578063313ce567146101a057806339509351146101be576100f5565b806306fdde03146100fa578063095ea7b3146101185780631249c58b14610148575b600080fd5b610102610326565b60405161010f9190610fe9565b60405180910390f35b610132600480360381019061012d9190610dea565b6103b8565b60405161013f9190610fce565b60405180910390f35b6101506103db565b005b61015a61040b565b604051610167919061110b565b60405180910390f35b61018a60048036038101906101859190610d9b565b610415565b6040516101979190610fce565b60405180910390f35b6101a8610444565b6040516101b59190611126565b60405180910390f35b6101d860048036038101906101d39190610dea565b61044d565b6040516101e59190610fce565b60405180910390f35b6101f6610484565b604051610203919061110b565b60405180910390f35b61022660048036038101906102219190610d36565b61049b565b604051610233919061110b565b60405180910390f35b6102446104e3565b6040516102519190610fb3565b60405180910390f35b610262610509565b60405161026f9190610fe9565b60405180910390f35b610292600480360381019061028d9190610dea565b61059b565b60405161029f9190610fce565b60405180910390f35b6102c260048036038101906102bd9190610dea565b610612565b6040516102cf9190610fce565b60405180910390f35b6102e0610635565b6040516102ed919061110b565b60405180910390f35b610310600480360381019061030b9190610d5f565b61063b565b60405161031d919061110b565b60405180910390f35b6060600380546103359061123b565b80601f01602080910402602001604051908101604052809291908181526020018280546103619061123b565b80156103ae5780601f10610383576101008083540402835291602001916103ae565b820191906000526020600020905b81548152906001019060200180831161039157829003601f168201915b5050505050905090565b6000806103c36106c2565b90506103d08185856106ca565b600191505092915050565b610409600660009054906101000a900473ffffffffffffffffffffffffffffffffffffffff16600554610895565b565b6000600254905090565b6000806104206106c2565b905061042d8582856109f5565b610438858585610a81565b60019150509392505050565b60006012905090565b6000806104586106c2565b905061047981858561046a858961063b565b610474919061115d565b6106ca565b600191505092915050565b60008061048f610444565b60ff1690508091505090565b60008060008373ffffffffffffffffffffffffffffffffffffffff1673ffffffffffffffffffffffffffffffffffffffff168152602001908152602001600020549050919050565b600660009054906101000a900473ffffffffffffffffffffffffffffffffffffffff1681565b6060600480546105189061123b565b80601f01602080910402602001604051908101604052809291908181526020018280546105449061123b565b80156105915780601f1061056657610100808354040283529160200191610591565b820191906000526020600020905b81548152906001019060200180831161057457829003601f168201915b5050505050905090565b6000806105a66106c2565b905060006105b4828661063b565b9050838110156105f9576040517f08c379a00000000000000000000000000000000000000000000000000000000081526004016105f0906110cb565b60405180910390fd5b61060682868684036106ca565b60019250505092915050565b60008061061d6106c2565b905061062a818585610a81565b600191505092915050565b60055481565b6000600160008473ffffffffffffffffffffffffffffffffffffffff1673ffffffffffffffffffffffffffffffffffffffff16815260200190815260200160002060008373ffffffffffffffffffffffffffffffffffffffff1673ffffffffffffffffffffffffffffffffffffffff16815260200190815260200160002054905092915050565b600033905090565b600073ffffffffffffffffffffffffffffffffffffffff168373ffffffffffffffffffffffffffffffffffffffff16141561073a576040517f08c379a0000000000000000000000000000000000000000000000000000000008152600401610731906110ab565b60405180910390fd5b600073ffffffffffffffffffffffffffffffffffffffff168273ffffffffffffffffffffffffffffffffffffffff1614156107aa576040517f08c379a00000000000000000000000000000000000000000000000000000000081526004016107a19061102b565b60405180910390fd5b80600160008573ffffffffffffffffffffffffffffffffffffffff1673ffffffffffffffffffffffffffffffffffffffff16815260200190815260200160002060008473ffffffffffffffffffffffffffffffffffffffff1673ffffffffffffffffffffffffffffffffffffffff168152602001908152602001600020819055508173ffffffffffffffffffffffffffffffffffffffff168373ffffffffffffffffffffffffffffffffffffffff167f8c5be1e5ebec7d5bd14f71427d1e84f3dd0314c0f7b2291e5b200ac8c7c3b92583604051610888919061110b565b60405180910390a3505050565b600073ffffffffffffffffffffffffffffffffffffffff168273ffffffffffffffffffffffffffffffffffffffff161415610905576040517f08c379a00000000000000000000000000000000000000000000000000000000081526004016108fc906110eb565b60405180910390fd5b61091160008383610d02565b8060026000828254610923919061115d565b92505081905550806000808473ffffffffffffffffffffffffffffffffffffffff1673ffffffffffffffffffffffffffffffffffffffff1681526020019081526020016000206000828254610978919061115d565b925050819055508173ffffffffffffffffffffffffffffffffffffffff16600073ffffffffffffffffffffffffffffffffffffffff167fddf252ad1be2c89b69c2b068fc378daa952ba7f163c4a11628f55a4df523b3ef836040516109dd919061110b565b60405180910390a36109f160008383610d07565b5050565b6000610a01848461063b565b90507fffffffffffffffffffffffffffffffffffffffffffffffffffffffffffffffff8114610a7b5781811015610a6d576040517f08c379a0000000000000000000000000000000000000000000000000000000008152600401610a649061104b565b60405180910390fd5b610a7a84848484036106ca565b5b50505050565b600073ffffffffffffffffffffffffffffffffffffffff168373ffffffffffffffffffffffffffffffffffffffff161415610af1576040517f08c379a0000000000000000000000000000000000000000000000000000000008152600401610ae89061108b565b60405180910390fd5b600073ffffffffffffffffffffffffffffffffffffffff168273ffffffffffffffffffffffffffffffffffffffff161415610b61576040517f08c379a0000000000000000000000000000000000000000000000000000000008152600401610b589061100b565b60405180910390fd5b610b6c838383610d02565b60008060008573ffffffffffffffffffffffffffffffffffffffff1673ffffffffffffffffffffffffffffffffffffffff16815260200190815260200160002054905081811015610bf2576040517f08c379a0000000000000000000000000000000000000000000000000000000008152600401610be99061106b565b60405180910390fd5b8181036000808673ffffffffffffffffffffffffffffffffffffffff1673ffffffffffffffffffffffffffffffffffffffff16815260200190815260200160002081905550816000808573ffffffffffffffffffffffffffffffffffffffff1673ffffffffffffffffffffffffffffffffffffffff1681526020019081526020016000206000828254610c85919061115d565b925050819055508273ffffffffffffffffffffffffffffffffffffffff168473ffffffffffffffffffffffffffffffffffffffff167fddf252ad1be2c89b69c2b068fc378daa952ba7f163c4a11628f55a4df523b3ef84604051610ce9919061110b565b60405180910390a3610cfc848484610d07565b50505050565b505050565b505050565b600081359050610d1b81611508565b92915050565b600081359050610d308161151f565b92915050565b600060208284031215610d4857600080fd5b6000610d5684828501610d0c565b91505092915050565b60008060408385031215610d7257600080fd5b6000610d8085828601610d0c565b9250506020610d9185828601610d0c565b9150509250929050565b600080600060608486031215610db057600080fd5b6000610dbe86828701610d0c565b9350506020610dcf86828701610d0c565b9250506040610de086828701610d21565b9150509250925092565b60008060408385031215610dfd57600080fd5b6000610e0b85828601610d0c565b9250506020610e1c85828601610d21565b9150509250929050565b610e2f816111b3565b82525050565b610e3e816111c5565b82525050565b6000610e4f82611141565b610e59818561114c565b9350610e69818560208601611208565b610e72816112cb565b840191505092915050565b6000610e8a60238361114c565b9150610e95826112dc565b604082019050919050565b6000610ead60228361114c565b9150610eb88261132b565b604082019050919050565b6000610ed0601d8361114c565b9150610edb8261137a565b602082019050919050565b6000610ef360268361114c565b9150610efe826113a3565b604082019050919050565b6000610f1660258361114c565b9150610f21826113f2565b604082019050919050565b6000610f3960248361114c565b9150610f4482611441565b604082019050919050565b6000610f5c60258361114c565b9150610f6782611490565b604082019050919050565b6000610f7f601f8361114c565b9150610f8a826114df565b602082019050919050565b610f9e816111f1565b82525050565b610fad816111fb565b82525050565b6000602082019050610fc86000830184610e26565b92915050565b6000602082019050610fe36000830184610e35565b92915050565b600060208201905081810360008301526110038184610e44565b905092915050565b6000602082019050818103600083015261102481610e7d565b9050919050565b6000602082019050818103600083015261104481610ea0565b9050919050565b6000602082019050818103600083015261106481610ec3565b9050919050565b6000602082019050818103600083015261108481610ee6565b9050919050565b600060208201905081810360008301526110a481610f09565b9050919050565b600060208201905081810360008301526110c481610f2c565b9050919050565b600060208201905081810360008301526110e481610f4f565b9050919050565b6000602082019050818103600083015261110481610f72565b9050919050565b60006020820190506111206000830184610f95565b92915050565b600060208201905061113b6000830184610fa4565b92915050565b600081519050919050565b600082825260208201905092915050565b6000611168826111f1565b9150611173836111f1565b9250827fffffffffffffffffffffffffffffffffffffffffffffffffffffffffffffffff038211156111a8576111a761126d565b5b828201905092915050565b60006111be826111d1565b9050919050565b60008115159050919050565b600073ffffffffffffffffffffffffffffffffffffffff82169050919050565b6000819050919050565b600060ff82169050919050565b60005b8381101561122657808201518184015260208101905061120b565b83811115611235576000848401525b50505050565b6000600282049050600182168061125357607f821691505b602082108114156112675761126661129c565b5b50919050565b7f4e487b7100000000000000000000000000000000000000000000000000000000600052601160045260246000fd5b7f4e487b7100000000000000000000000000000000000000000000000000000000600052602260045260246000fd5b6000601f19601f8301169050919050565b7f45524332303a207472616e7366657220746f20746865207a65726f206164647260008201527f6573730000000000000000000000000000000000000000000000000000000000602082015250565b7f45524332303a20617070726f766520746f20746865207a65726f20616464726560008201527f7373000000000000000000000000000000000000000000000000000000000000602082015250565b7f45524332303a20696e73756666696369656e7420616c6c6f77616e6365000000600082015250565b7f45524332303a207472616e7366657220616d6f756e742065786365656473206260008201527f616c616e63650000000000000000000000000000000000000000000000000000602082015250565b7f45524332303a207472616e736665722066726f6d20746865207a65726f20616460008201527f6472657373000000000000000000000000000000000000000000000000000000602082015250565b7f45524332303a20617070726f76652066726f6d20746865207a65726f2061646460008201527f7265737300000000000000000000000000000000000000000000000000000000602082015250565b7f45524332303a2064656372656173656420616c6c6f77616e63652062656c6f7760008201527f207a65726f000000000000000000000000000000000000000000000000000000602082015250565b7f45524332303a206d696e7420746f20746865207a65726f206164647265737300600082015250565b611511816111b3565b811461151c57600080fd5b50565b611528816111f1565b811461153357600080fd5b5056fea2646970667358221220b84df074c48acc576c6d675b5df407a6f08b48dd1a2042ae1bfbcc5b59d4c8a264736f6c63430008010033",
  "immutableReferences": {},
  "source": "pragma solidity ^0.8.0;\r\n\r\nimport \"@openzeppelin/contracts/token/ERC20/ERC20.sol\";\r\n\r\ncontract GLDToken is ERC20 {\r\n    uint256 public _initialSupply;\r\n    address public owner;\r\n    constructor(uint256 initialSupply) ERC20(\"Gold\", \"GLD\")  {\r\n        owner=msg.sender;\r\n\r\n        _initialSupply=initialSupply;\r\n     \r\n    }\r\n\r\n\r\n\r\n\r\n\r\n    function mint() public {\r\n        _mint(owner,_initialSupply);\r\n\r\n    }\r\n\r\n\r\n    function check_decimal() public returns(uint) {\r\n        uint get_decimals=decimals();\r\n        return get_decimals;\r\n\r\n    }\r\n\r\n\r\n\r\n  \r\n\r\n\r\n\r\n\r\n\r\n}",
  "sourcePath": "D:\\lazy_minting\\contracts\\new_erc_20.sol",
  "compiler": {
    "name": "solc",
    "version": "0.8.1+commit.df193b15.Emscripten.clang"
  },
  "schemaVersion": "3.4.7",
  "updatedAt": "2022-07-04T14:24:38.356Z",
  "networkType": "ethereum",
  "devdoc": {
    "kind": "dev",
    "methods": {
      "allowance(address,address)": {
        "details": "See {IERC20-allowance}."
      },
      "approve(address,uint256)": {
        "details": "See {IERC20-approve}. NOTE: If `amount` is the maximum `uint256`, the allowance is not updated on `transferFrom`. This is semantically equivalent to an infinite approval. Requirements: - `spender` cannot be the zero address."
      },
      "balanceOf(address)": {
        "details": "See {IERC20-balanceOf}."
      },
      "decimals()": {
        "details": "Returns the number of decimals used to get its user representation. For example, if `decimals` equals `2`, a balance of `505` tokens should be displayed to a user as `5.05` (`505 / 10 ** 2`). Tokens usually opt for a value of 18, imitating the relationship between Ether and Wei. This is the value {ERC20} uses, unless this function is overridden; NOTE: This information is only used for _display_ purposes: it in no way affects any of the arithmetic of the contract, including {IERC20-balanceOf} and {IERC20-transfer}."
      },
      "decreaseAllowance(address,uint256)": {
        "details": "Atomically decreases the allowance granted to `spender` by the caller. This is an alternative to {approve} that can be used as a mitigation for problems described in {IERC20-approve}. Emits an {Approval} event indicating the updated allowance. Requirements: - `spender` cannot be the zero address. - `spender` must have allowance for the caller of at least `subtractedValue`."
      },
      "increaseAllowance(address,uint256)": {
        "details": "Atomically increases the allowance granted to `spender` by the caller. This is an alternative to {approve} that can be used as a mitigation for problems described in {IERC20-approve}. Emits an {Approval} event indicating the updated allowance. Requirements: - `spender` cannot be the zero address."
      },
      "name()": {
        "details": "Returns the name of the token."
      },
      "symbol()": {
        "details": "Returns the symbol of the token, usually a shorter version of the name."
      },
      "totalSupply()": {
        "details": "See {IERC20-totalSupply}."
      },
      "transfer(address,uint256)": {
        "details": "See {IERC20-transfer}. Requirements: - `to` cannot be the zero address. - the caller must have a balance of at least `amount`."
      },
      "transferFrom(address,address,uint256)": {
        "details": "See {IERC20-transferFrom}. Emits an {Approval} event indicating the updated allowance. This is not required by the EIP. See the note at the beginning of {ERC20}. NOTE: Does not update the allowance if the current allowance is the maximum `uint256`. Requirements: - `from` and `to` cannot be the zero address. - `from` must have a balance of at least `amount`. - the caller must have allowance for ``from``'s tokens of at least `amount`."
      }
    },
    "version": 1
  },
  "userdoc": {
    "kind": "user",
    "methods": {},
    "version": 1
  }
}