{
  "contractName": "ICO",
  "abi": [
    {
      "inputs": [
        {
          "internalType": "uint256",
          "name": "rate",
          "type": "uint256"
        },
        {
          "internalType": "address payable",
          "name": "wallet",
          "type": "address"
        },
        {
          "internalType": "contract IERC20",
          "name": "token",
          "type": "address"
        },
        {
          "internalType": "uint256",
          "name": "cap",
          "type": "uint256"
        }
      ],
      "stateMutability": "nonpayable",
      "type": "constructor"
    },
    {
      "anonymous": false,
      "inputs": [
        {
          "indexed": true,
          "internalType": "address",
          "name": "previousOwner",
          "type": "address"
        },
        {
          "indexed": true,
          "internalType": "address",
          "name": "newOwner",
          "type": "address"
        }
      ],
      "name": "OwnershipTransferred",
      "type": "event"
    },
    {
      "anonymous": false,
      "inputs": [
        {
          "indexed": false,
          "internalType": "address",
          "name": "",
          "type": "address"
        },
        {
          "indexed": false,
          "internalType": "uint256",
          "name": "",
          "type": "uint256"
        }
      ],
      "name": "Received",
      "type": "event"
    },
    {
      "anonymous": false,
      "inputs": [
        {
          "indexed": true,
          "internalType": "address",
          "name": "purchaser",
          "type": "address"
        },
        {
          "indexed": true,
          "internalType": "address",
          "name": "beneficiary",
          "type": "address"
        },
        {
          "indexed": false,
          "internalType": "uint256",
          "name": "value",
          "type": "uint256"
        },
        {
          "indexed": false,
          "internalType": "uint256",
          "name": "amount",
          "type": "uint256"
        }
      ],
      "name": "TokenPurchase",
      "type": "event"
    },
    {
      "stateMutability": "payable",
      "type": "fallback",
      "payable": true
    },
    {
      "inputs": [],
      "name": "ForeverNFT",
      "outputs": [
        {
          "internalType": "address",
          "name": "",
          "type": "address"
        }
      ],
      "stateMutability": "view",
      "type": "function",
      "constant": true
    },
    {
      "inputs": [
        {
          "internalType": "address",
          "name": "_beneficiary",
          "type": "address"
        }
      ],
      "name": "buyTokens",
      "outputs": [
        {
          "internalType": "bool",
          "name": "",
          "type": "bool"
        }
      ],
      "stateMutability": "payable",
      "type": "function",
      "payable": true
    },
    {
      "inputs": [],
      "name": "cap",
      "outputs": [
        {
          "internalType": "uint256",
          "name": "",
          "type": "uint256"
        }
      ],
      "stateMutability": "view",
      "type": "function",
      "constant": true
    },
    {
      "inputs": [],
      "name": "capReached",
      "outputs": [
        {
          "internalType": "bool",
          "name": "",
          "type": "bool"
        }
      ],
      "stateMutability": "view",
      "type": "function",
      "constant": true
    },
    {
      "inputs": [
        {
          "internalType": "uint256",
          "name": "index",
          "type": "uint256"
        }
      ],
      "name": "getSaleByIndex",
      "outputs": [
        {
          "components": [
            {
              "internalType": "address",
              "name": "investors",
              "type": "address"
            },
            {
              "internalType": "uint256",
              "name": "tokenAmount",
              "type": "uint256"
            },
            {
              "internalType": "uint256",
              "name": "weiAmount",
              "type": "uint256"
            }
          ],
          "internalType": "struct Crowdsale.Sale",
          "name": "",
          "type": "tuple"
        }
      ],
      "stateMutability": "view",
      "type": "function",
      "constant": true
    },
    {
      "inputs": [],
      "name": "getTotalSale",
      "outputs": [
        {
          "internalType": "uint256",
          "name": "",
          "type": "uint256"
        }
      ],
      "stateMutability": "view",
      "type": "function",
      "constant": true
    },
    {
      "inputs": [
        {
          "internalType": "address",
          "name": "",
          "type": "address"
        }
      ],
      "name": "investors",
      "outputs": [
        {
          "internalType": "bool",
          "name": "",
          "type": "bool"
        }
      ],
      "stateMutability": "view",
      "type": "function",
      "constant": true
    },
    {
      "inputs": [],
      "name": "owner",
      "outputs": [
        {
          "internalType": "address",
          "name": "",
          "type": "address"
        }
      ],
      "stateMutability": "view",
      "type": "function",
      "constant": true
    },
    {
      "inputs": [],
      "name": "rate",
      "outputs": [
        {
          "internalType": "uint256",
          "name": "",
          "type": "uint256"
        }
      ],
      "stateMutability": "view",
      "type": "function",
      "constant": true
    },
    {
      "inputs": [],
      "name": "renounceOwnership",
      "outputs": [],
      "stateMutability": "nonpayable",
      "type": "function"
    },
    {
      "inputs": [
        {
          "internalType": "address",
          "name": "_ForeverNFT",
          "type": "address"
        }
      ],
      "name": "setNFTContract",
      "outputs": [],
      "stateMutability": "nonpayable",
      "type": "function"
    },
    {
      "inputs": [],
      "name": "token",
      "outputs": [
        {
          "internalType": "contract IERC20",
          "name": "",
          "type": "address"
        }
      ],
      "stateMutability": "view",
      "type": "function",
      "constant": true
    },
    {
      "inputs": [
        {
          "internalType": "address",
          "name": "newOwner",
          "type": "address"
        }
      ],
      "name": "transferOwnership",
      "outputs": [],
      "stateMutability": "nonpayable",
      "type": "function"
    },
    {
      "inputs": [],
      "name": "wallet",
      "outputs": [
        {
          "internalType": "address",
          "name": "",
          "type": "address"
        }
      ],
      "stateMutability": "view",
      "type": "function",
      "constant": true
    },
    {
      "inputs": [],
      "name": "weiRaised",
      "outputs": [
        {
          "internalType": "uint256",
          "name": "",
          "type": "uint256"
        }
      ],
      "stateMutability": "view",
      "type": "function",
      "constant": true
    },
    {
      "inputs": [
        {
          "internalType": "address",
          "name": "investor",
          "type": "address"
        }
      ],
      "name": "whitelist",
      "outputs": [],
      "stateMutability": "nonpayable",
      "type": "function"
    },
    {
      "stateMutability": "payable",
      "type": "receive",
      "payable": true
    }
  ],
  "bytecode": "0x60806040523480156200001157600080fd5b50604051620018953803806200189583398181016040528101906200003791906200028e565b838383836200005b6200004f6200017d60201b60201c565b6200018560201b60201c565b600084116200006957600080fd5b600073ffffffffffffffffffffffffffffffffffffffff168373ffffffffffffffffffffffffffffffffffffffff161415620000a457600080fd5b600073ffffffffffffffffffffffffffffffffffffffff168273ffffffffffffffffffffffffffffffffffffffff161415620000df57600080fd5b8360038190555082600260006101000a81548173ffffffffffffffffffffffffffffffffffffffff021916908373ffffffffffffffffffffffffffffffffffffffff16021790555081600160006101000a81548173ffffffffffffffffffffffffffffffffffffffff021916908373ffffffffffffffffffffffffffffffffffffffff160217905550806005819055505050505050505050620003ae565b600033905090565b60008060009054906101000a900473ffffffffffffffffffffffffffffffffffffffff169050816000806101000a81548173ffffffffffffffffffffffffffffffffffffffff021916908373ffffffffffffffffffffffffffffffffffffffff1602179055508173ffffffffffffffffffffffffffffffffffffffff168173ffffffffffffffffffffffffffffffffffffffff167f8be0079c531659141344cd1fd0a4f28419497f9722a3daafe3b4186f6b6457e060405160405180910390a35050565b6000815190506200025a8162000360565b92915050565b60008151905062000271816200037a565b92915050565b600081519050620002888162000394565b92915050565b60008060008060808587031215620002a557600080fd5b6000620002b58782880162000277565b9450506020620002c88782880162000249565b9350506040620002db8782880162000260565b9250506060620002ee8782880162000277565b91505092959194509250565b6000620003078262000336565b9050919050565b60006200031b8262000336565b9050919050565b60006200032f82620002fa565b9050919050565b600073ffffffffffffffffffffffffffffffffffffffff82169050919050565b6000819050919050565b6200036b816200030e565b81146200037757600080fd5b50565b620003858162000322565b81146200039157600080fd5b50565b6200039f8162000356565b8114620003ab57600080fd5b50565b6114d780620003be6000396000f3fe6080604052600436106100f75760003560e01c80638da5cb5b1161008a578063ec8ac4d811610059578063ec8ac4d814610353578063f2fde38b14610383578063fc0c546a146103ac578063fecbc9e8146103d757610137565b80638da5cb5b146102995780639b19251a146102c4578063a7ccabdf146102ed578063bc985c251461031657610137565b80634f935945116100c65780634f935945146101ef578063521eb2731461021a5780636f7bc9be14610245578063715018a61461028257610137565b80631f2475bd146101435780632c4e722e1461016e578063355274ea146101995780634042b66f146101c457610137565b36610137577f88a5966d370b9919b20f3e2c13ff65706f196a4e32cc2c12bf57088f88525874333460405161012d9291906110cc565b60405180910390a1005b61014033610402565b50005b34801561014f57600080fd5b50610158610758565b60405161016591906111a6565b60405180910390f35b34801561017a57600080fd5b50610183610765565b60405161019091906111a6565b60405180910390f35b3480156101a557600080fd5b506101ae61076b565b6040516101bb91906111a6565b60405180910390f35b3480156101d057600080fd5b506101d9610771565b6040516101e691906111a6565b60405180910390f35b3480156101fb57600080fd5b50610204610777565b60405161021191906110f5565b60405180910390f35b34801561022657600080fd5b5061022f610786565b60405161023c91906110b1565b60405180910390f35b34801561025157600080fd5b5061026c60048036038101906102679190610ee9565b6107ac565b60405161027991906110f5565b60405180910390f35b34801561028e57600080fd5b506102976107cc565b005b3480156102a557600080fd5b506102ae610854565b6040516102bb91906110b1565b60405180910390f35b3480156102d057600080fd5b506102eb60048036038101906102e69190610ee9565b61087d565b005b3480156102f957600080fd5b50610314600480360381019061030f9190610ee9565b610954565b005b34801561032257600080fd5b5061033d60048036038101906103389190610f3b565b610a14565b60405161034a919061118b565b60405180910390f35b61036d60048036038101906103689190610ee9565b610402565b60405161037a91906110f5565b60405180910390f35b34801561038f57600080fd5b506103aa60048036038101906103a59190610ee9565b610ae0565b005b3480156103b857600080fd5b506103c1610bd8565b6040516103ce9190611110565b60405180910390f35b3480156103e357600080fd5b506103ec610bfe565b6040516103f991906110b1565b60405180910390f35b6000600554600454111561044b576040517f08c379a00000000000000000000000000000000000000000000000000000000081526004016104429061116b565b60405180910390fd5b600034905061045a8382610c24565b600061046582610c93565b905061047c82600454610cb190919063ffffffff16565b60048190555061048c8482610cc7565b8373ffffffffffffffffffffffffffffffffffffffff163373ffffffffffffffffffffffffffffffffffffffff167f623b3804fa71d67900d064613da8f94b9617215ee90799290593e1745087ad1884846040516104eb9291906111c1565b60405180910390a36104fd8483610cd5565b600260009054906101000a900473ffffffffffffffffffffffffffffffffffffffff1673ffffffffffffffffffffffffffffffffffffffff166108fc349081150290604051600060405180830381858888f19350505050158015610565573d6000803e3d6000fd5b506105708483610cd9565b6000600660009054906101000a900473ffffffffffffffffffffffffffffffffffffffff1673ffffffffffffffffffffffffffffffffffffffff1633836040516024016105be9291906110cc565b6040516020818303038152906040527ff0344501000000000000000000000000000000000000000000000000000000007bffffffffffffffffffffffffffffffffffffffffffffffffffffffff19166020820180517bffffffffffffffffffffffffffffffffffffffffffffffffffffffff8381831617835250505050604051610648919061109a565b6000604051808303816000865af19150503d8060008114610685576040519150601f19603f3d011682016040523d82523d6000602084013e61068a565b606091505b50509050600060405180606001604052808773ffffffffffffffffffffffffffffffffffffffff168152602001848152602001858152509050600881908060018154018082558091505060019003906000526020600020906003020160009091909190915060008201518160000160006101000a81548173ffffffffffffffffffffffffffffffffffffffff021916908373ffffffffffffffffffffffffffffffffffffffff1602179055506020820151816001015560408201518160020155505081945050505050919050565b6000600880549050905090565b60035481565b60055481565b60045481565b60006005546004541015905090565b600260009054906101000a900473ffffffffffffffffffffffffffffffffffffffff1681565b60076020528060005260406000206000915054906101000a900460ff1681565b6107d4610cdd565b73ffffffffffffffffffffffffffffffffffffffff166107f2610854565b73ffffffffffffffffffffffffffffffffffffffff1614610848576040517f08c379a000000000000000000000000000000000000000000000000000000000815260040161083f9061114b565b60405180910390fd5b6108526000610ce5565b565b60008060009054906101000a900473ffffffffffffffffffffffffffffffffffffffff16905090565b610885610cdd565b73ffffffffffffffffffffffffffffffffffffffff166108a3610854565b73ffffffffffffffffffffffffffffffffffffffff16146108f9576040517f08c379a00000000000000000000000000000000000000000000000000000000081526004016108f09061114b565b60405180910390fd5b6001600760008373ffffffffffffffffffffffffffffffffffffffff1673ffffffffffffffffffffffffffffffffffffffff16815260200190815260200160002060006101000a81548160ff02191690831515021790555050565b61095c610cdd565b73ffffffffffffffffffffffffffffffffffffffff1661097a610854565b73ffffffffffffffffffffffffffffffffffffffff16146109d0576040517f08c379a00000000000000000000000000000000000000000000000000000000081526004016109c79061114b565b60405180910390fd5b80600660006101000a81548173ffffffffffffffffffffffffffffffffffffffff021916908373ffffffffffffffffffffffffffffffffffffffff16021790555050565b610a1c610e73565b60088281548110610a56577f4e487b7100000000000000000000000000000000000000000000000000000000600052603260045260246000fd5b90600052602060002090600302016040518060600160405290816000820160009054906101000a900473ffffffffffffffffffffffffffffffffffffffff1673ffffffffffffffffffffffffffffffffffffffff1673ffffffffffffffffffffffffffffffffffffffff168152602001600182015481526020016002820154815250509050919050565b610ae8610cdd565b73ffffffffffffffffffffffffffffffffffffffff16610b06610854565b73ffffffffffffffffffffffffffffffffffffffff1614610b5c576040517f08c379a0000000000000000000000000000000000000000000000000000000008152600401610b539061114b565b60405180910390fd5b600073ffffffffffffffffffffffffffffffffffffffff168173ffffffffffffffffffffffffffffffffffffffff161415610bcc576040517f08c379a0000000000000000000000000000000000000000000000000000000008152600401610bc39061112b565b60405180910390fd5b610bd581610ce5565b50565b600160009054906101000a900473ffffffffffffffffffffffffffffffffffffffff1681565b600660009054906101000a900473ffffffffffffffffffffffffffffffffffffffff1681565b600073ffffffffffffffffffffffffffffffffffffffff168273ffffffffffffffffffffffffffffffffffffffff161415610c5e57600080fd5b6000811415610c6c57600080fd5b600554610c8482600454610cb190919063ffffffff16565b1115610c8f57600080fd5b5050565b6000610caa60035483610da990919063ffffffff16565b9050919050565b60008183610cbf9190611211565b905092915050565b610cd18282610dbf565b5050565b5050565b5050565b600033905090565b60008060009054906101000a900473ffffffffffffffffffffffffffffffffffffffff169050816000806101000a81548173ffffffffffffffffffffffffffffffffffffffff021916908373ffffffffffffffffffffffffffffffffffffffff1602179055508173ffffffffffffffffffffffffffffffffffffffff168173ffffffffffffffffffffffffffffffffffffffff167f8be0079c531659141344cd1fd0a4f28419497f9722a3daafe3b4186f6b6457e060405160405180910390a35050565b60008183610db79190611267565b905092915050565b600160009054906101000a900473ffffffffffffffffffffffffffffffffffffffff1673ffffffffffffffffffffffffffffffffffffffff1663a9059cbb83836040518363ffffffff1660e01b8152600401610e1c9291906110cc565b602060405180830381600087803b158015610e3657600080fd5b505af1158015610e4a573d6000803e3d6000fd5b505050506040513d601f19601f82011682018060405250810190610e6e9190610f12565b505050565b6040518060600160405280600073ffffffffffffffffffffffffffffffffffffffff16815260200160008152602001600081525090565b600081359050610eb98161145c565b92915050565b600081519050610ece81611473565b92915050565b600081359050610ee38161148a565b92915050565b600060208284031215610efb57600080fd5b6000610f0984828501610eaa565b91505092915050565b600060208284031215610f2457600080fd5b6000610f3284828501610ebf565b91505092915050565b600060208284031215610f4d57600080fd5b6000610f5b84828501610ed4565b91505092915050565b610f6d81611298565b82525050565b610f7c81611298565b82525050565b610f8b816112aa565b82525050565b6000610f9c826111ea565b610fa681856111f5565b9350610fb6818560208601611304565b80840191505092915050565b610fcb816112e0565b82525050565b6000610fde602683611200565b9150610fe982611395565b604082019050919050565b6000611001602083611200565b915061100c826113e4565b602082019050919050565b6000611024602983611200565b915061102f8261140d565b604082019050919050565b6060820160008201516110506000850182610f64565b506020820151611063602085018261107c565b506040820151611076604085018261107c565b50505050565b611085816112d6565b82525050565b611094816112d6565b82525050565b60006110a68284610f91565b915081905092915050565b60006020820190506110c66000830184610f73565b92915050565b60006040820190506110e16000830185610f73565b6110ee602083018461108b565b9392505050565b600060208201905061110a6000830184610f82565b92915050565b60006020820190506111256000830184610fc2565b92915050565b6000602082019050818103600083015261114481610fd1565b9050919050565b6000602082019050818103600083015261116481610ff4565b9050919050565b6000602082019050818103600083015261118481611017565b9050919050565b60006060820190506111a0600083018461103a565b92915050565b60006020820190506111bb600083018461108b565b92915050565b60006040820190506111d6600083018561108b565b6111e3602083018461108b565b9392505050565b600081519050919050565b600081905092915050565b600082825260208201905092915050565b600061121c826112d6565b9150611227836112d6565b9250827fffffffffffffffffffffffffffffffffffffffffffffffffffffffffffffffff0382111561125c5761125b611337565b5b828201905092915050565b6000611272826112d6565b915061127d836112d6565b92508261128d5761128c611366565b5b828204905092915050565b60006112a3826112b6565b9050919050565b60008115159050919050565b600073ffffffffffffffffffffffffffffffffffffffff82169050919050565b6000819050919050565b60006112eb826112f2565b9050919050565b60006112fd826112b6565b9050919050565b60005b83811015611322578082015181840152602081019050611307565b83811115611331576000848401525b50505050565b7f4e487b7100000000000000000000000000000000000000000000000000000000600052601160045260246000fd5b7f4e487b7100000000000000000000000000000000000000000000000000000000600052601260045260246000fd5b7f4f776e61626c653a206e6577206f776e657220697320746865207a65726f206160008201527f6464726573730000000000000000000000000000000000000000000000000000602082015250565b7f4f776e61626c653a2063616c6c6572206973206e6f7420746865206f776e6572600082015250565b7f4361702070726963652072656163686564202c204e6f206d6f726520436f696e60008201527f7320546f2073656c6c0000000000000000000000000000000000000000000000602082015250565b61146581611298565b811461147057600080fd5b50565b61147c816112aa565b811461148757600080fd5b50565b611493816112d6565b811461149e57600080fd5b5056fea26469706673582212204a511799a9214eabf415fad5c6b066482a2dc6bf3b73edc6f7760f8a61b4558064736f6c63430008010033",
  "immutableReferences": {},
  "source": "//SPDX-License-Identifier:MIT\r\npragma solidity ^0.8.0;\r\n\r\nimport \"./crowdsale/Crowdsale.sol\";\r\n\r\ncontract ICO is Crowdsale{\r\n    constructor(\r\n        uint256 rate,\r\n        address payable wallet,\r\n        IERC20 token,\r\n        uint256 cap\r\n     ) Crowdsale(rate, wallet, token ,cap) {}\r\n}",
  "sourcePath": "D:\\3dHoudini\\contracts\\ICO.sol",
  "compiler": {
    "name": "solc",
    "version": "0.8.1+commit.df193b15.Emscripten.clang"
  },
  "schemaVersion": "3.4.7",
  "updatedAt": "2022-07-06T06:30:52.786Z",
  "networkType": "ethereum",
  "devdoc": {
    "kind": "dev",
    "methods": {
      "buyTokens(address)": {
        "details": "low level token purchase ***DO NOT OVERRIDE***",
        "params": {
          "_beneficiary": "Address performing the token purchase"
        }
      },
      "owner()": {
        "details": "Returns the address of the current owner."
      },
      "renounceOwnership()": {
        "details": "Leaves the contract without owner. It will not be possible to call `onlyOwner` functions anymore. Can only be called by the current owner. NOTE: Renouncing ownership will leave the contract without an owner, thereby removing any functionality that is only available to the owner."
      },
      "transferOwnership(address)": {
        "details": "Transfers ownership of the contract to a new account (`newOwner`). Can only be called by the current owner."
      }
    },
    "version": 1
  },
  "userdoc": {
    "events": {
      "TokenPurchase(address,address,uint256,uint256)": {
        "notice": "Event for token purchase logging"
      }
    },
    "kind": "user",
    "methods": {},
    "version": 1
  }
}