{
  "contractName": "NFT",
  "abi": [
    {
      "inputs": [
        {
          "internalType": "string",
          "name": "uri_",
          "type": "string"
        }
      ],
      "stateMutability": "payable",
      "type": "constructor",
      "payable": true
    },
    {
      "anonymous": false,
      "inputs": [
        {
          "indexed": true,
          "internalType": "address",
          "name": "account",
          "type": "address"
        },
        {
          "indexed": true,
          "internalType": "address",
          "name": "operator",
          "type": "address"
        },
        {
          "indexed": false,
          "internalType": "bool",
          "name": "approved",
          "type": "bool"
        }
      ],
      "name": "ApprovalForAll",
      "type": "event"
    },
    {
      "anonymous": false,
      "inputs": [
        {
          "indexed": true,
          "internalType": "address",
          "name": "previousOwner",
          "type": "address"
        },
        {
          "indexed": true,
          "internalType": "address",
          "name": "newOwner",
          "type": "address"
        }
      ],
      "name": "OwnershipTransferred",
      "type": "event"
    },
    {
      "anonymous": false,
      "inputs": [
        {
          "indexed": true,
          "internalType": "address",
          "name": "operator",
          "type": "address"
        },
        {
          "indexed": true,
          "internalType": "address",
          "name": "from",
          "type": "address"
        },
        {
          "indexed": true,
          "internalType": "address",
          "name": "to",
          "type": "address"
        },
        {
          "indexed": false,
          "internalType": "uint256[]",
          "name": "ids",
          "type": "uint256[]"
        },
        {
          "indexed": false,
          "internalType": "uint256[]",
          "name": "values",
          "type": "uint256[]"
        }
      ],
      "name": "TransferBatch",
      "type": "event"
    },
    {
      "anonymous": false,
      "inputs": [
        {
          "indexed": true,
          "internalType": "address",
          "name": "operator",
          "type": "address"
        },
        {
          "indexed": true,
          "internalType": "address",
          "name": "from",
          "type": "address"
        },
        {
          "indexed": true,
          "internalType": "address",
          "name": "to",
          "type": "address"
        },
        {
          "indexed": false,
          "internalType": "uint256",
          "name": "id",
          "type": "uint256"
        },
        {
          "indexed": false,
          "internalType": "uint256",
          "name": "value",
          "type": "uint256"
        }
      ],
      "name": "TransferSingle",
      "type": "event"
    },
    {
      "anonymous": false,
      "inputs": [
        {
          "indexed": false,
          "internalType": "string",
          "name": "value",
          "type": "string"
        },
        {
          "indexed": true,
          "internalType": "uint256",
          "name": "id",
          "type": "uint256"
        }
      ],
      "name": "URI",
      "type": "event"
    },
    {
      "inputs": [
        {
          "internalType": "uint256",
          "name": "",
          "type": "uint256"
        }
      ],
      "name": "Sales",
      "outputs": [
        {
          "internalType": "address",
          "name": "investor",
          "type": "address"
        },
        {
          "internalType": "uint256",
          "name": "sAmount",
          "type": "uint256"
        }
      ],
      "stateMutability": "view",
      "type": "function",
      "constant": true
    },
    {
      "inputs": [
        {
          "internalType": "address",
          "name": "account",
          "type": "address"
        },
        {
          "internalType": "uint256",
          "name": "id",
          "type": "uint256"
        }
      ],
      "name": "balanceOf",
      "outputs": [
        {
          "internalType": "uint256",
          "name": "",
          "type": "uint256"
        }
      ],
      "stateMutability": "view",
      "type": "function",
      "constant": true
    },
    {
      "inputs": [
        {
          "internalType": "address[]",
          "name": "accounts",
          "type": "address[]"
        },
        {
          "internalType": "uint256[]",
          "name": "ids",
          "type": "uint256[]"
        }
      ],
      "name": "balanceOfBatch",
      "outputs": [
        {
          "internalType": "uint256[]",
          "name": "",
          "type": "uint256[]"
        }
      ],
      "stateMutability": "view",
      "type": "function",
      "constant": true
    },
    {
      "inputs": [
        {
          "internalType": "address",
          "name": "account",
          "type": "address"
        },
        {
          "internalType": "uint256",
          "name": "id",
          "type": "uint256"
        },
        {
          "internalType": "uint256",
          "name": "value",
          "type": "uint256"
        }
      ],
      "name": "burn",
      "outputs": [],
      "stateMutability": "nonpayable",
      "type": "function"
    },
    {
      "inputs": [
        {
          "internalType": "address",
          "name": "account",
          "type": "address"
        },
        {
          "internalType": "uint256[]",
          "name": "ids",
          "type": "uint256[]"
        },
        {
          "internalType": "uint256[]",
          "name": "values",
          "type": "uint256[]"
        }
      ],
      "name": "burnBatch",
      "outputs": [],
      "stateMutability": "nonpayable",
      "type": "function"
    },
    {
      "inputs": [
        {
          "internalType": "address",
          "name": "account",
          "type": "address"
        },
        {
          "internalType": "address",
          "name": "operator",
          "type": "address"
        }
      ],
      "name": "isApprovedForAll",
      "outputs": [
        {
          "internalType": "bool",
          "name": "",
          "type": "bool"
        }
      ],
      "stateMutability": "view",
      "type": "function",
      "constant": true
    },
    {
      "inputs": [
        {
          "internalType": "address",
          "name": "",
          "type": "address"
        },
        {
          "internalType": "address",
          "name": "",
          "type": "address"
        },
        {
          "internalType": "uint256[]",
          "name": "",
          "type": "uint256[]"
        },
        {
          "internalType": "uint256[]",
          "name": "",
          "type": "uint256[]"
        },
        {
          "internalType": "bytes",
          "name": "",
          "type": "bytes"
        }
      ],
      "name": "onERC1155BatchReceived",
      "outputs": [
        {
          "internalType": "bytes4",
          "name": "",
          "type": "bytes4"
        }
      ],
      "stateMutability": "nonpayable",
      "type": "function"
    },
    {
      "inputs": [
        {
          "internalType": "address",
          "name": "",
          "type": "address"
        },
        {
          "internalType": "address",
          "name": "",
          "type": "address"
        },
        {
          "internalType": "uint256",
          "name": "",
          "type": "uint256"
        },
        {
          "internalType": "uint256",
          "name": "",
          "type": "uint256"
        },
        {
          "internalType": "bytes",
          "name": "",
          "type": "bytes"
        }
      ],
      "name": "onERC1155Received",
      "outputs": [
        {
          "internalType": "bytes4",
          "name": "",
          "type": "bytes4"
        }
      ],
      "stateMutability": "nonpayable",
      "type": "function"
    },
    {
      "inputs": [],
      "name": "owner",
      "outputs": [
        {
          "internalType": "address",
          "name": "",
          "type": "address"
        }
      ],
      "stateMutability": "view",
      "type": "function",
      "constant": true
    },
    {
      "inputs": [],
      "name": "renounceOwnership",
      "outputs": [],
      "stateMutability": "nonpayable",
      "type": "function"
    },
    {
      "inputs": [
        {
          "internalType": "address",
          "name": "from",
          "type": "address"
        },
        {
          "internalType": "address",
          "name": "to",
          "type": "address"
        },
        {
          "internalType": "uint256[]",
          "name": "ids",
          "type": "uint256[]"
        },
        {
          "internalType": "uint256[]",
          "name": "amounts",
          "type": "uint256[]"
        },
        {
          "internalType": "bytes",
          "name": "data",
          "type": "bytes"
        }
      ],
      "name": "safeBatchTransferFrom",
      "outputs": [],
      "stateMutability": "nonpayable",
      "type": "function"
    },
    {
      "inputs": [
        {
          "internalType": "address",
          "name": "from",
          "type": "address"
        },
        {
          "internalType": "address",
          "name": "to",
          "type": "address"
        },
        {
          "internalType": "uint256",
          "name": "id",
          "type": "uint256"
        },
        {
          "internalType": "uint256",
          "name": "amount",
          "type": "uint256"
        },
        {
          "internalType": "bytes",
          "name": "data",
          "type": "bytes"
        }
      ],
      "name": "safeTransferFrom",
      "outputs": [],
      "stateMutability": "nonpayable",
      "type": "function"
    },
    {
      "inputs": [
        {
          "internalType": "address",
          "name": "operator",
          "type": "address"
        },
        {
          "internalType": "bool",
          "name": "approved",
          "type": "bool"
        }
      ],
      "name": "setApprovalForAll",
      "outputs": [],
      "stateMutability": "nonpayable",
      "type": "function"
    },
    {
      "inputs": [
        {
          "internalType": "address",
          "name": "newOwner",
          "type": "address"
        }
      ],
      "name": "transferOwnership",
      "outputs": [],
      "stateMutability": "nonpayable",
      "type": "function"
    },
    {
      "inputs": [
        {
          "internalType": "uint256",
          "name": "",
          "type": "uint256"
        }
      ],
      "name": "uri",
      "outputs": [
        {
          "internalType": "string",
          "name": "",
          "type": "string"
        }
      ],
      "stateMutability": "view",
      "type": "function",
      "constant": true
    },
    {
      "inputs": [
        {
          "internalType": "bytes4",
          "name": "interfaceId",
          "type": "bytes4"
        }
      ],
      "name": "supportsInterface",
      "outputs": [
        {
          "internalType": "bool",
          "name": "",
          "type": "bool"
        }
      ],
      "stateMutability": "view",
      "type": "function",
      "constant": true
    },
    {
      "inputs": [
        {
          "internalType": "address",
          "name": "_contract",
          "type": "address"
        }
      ],
      "name": "setContractAddr",
      "outputs": [
        {
          "internalType": "address",
          "name": "",
          "type": "address"
        }
      ],
      "stateMutability": "nonpayable",
      "type": "function"
    },
    {
      "inputs": [
        {
          "internalType": "address",
          "name": "account",
          "type": "address"
        },
        {
          "internalType": "uint256",
          "name": "id",
          "type": "uint256"
        },
        {
          "internalType": "uint256",
          "name": "amount",
          "type": "uint256"
        }
      ],
      "name": "mint",
      "outputs": [],
      "stateMutability": "nonpayable",
      "type": "function"
    },
    {
      "inputs": [
        {
          "internalType": "uint256",
          "name": "_price",
          "type": "uint256"
        }
      ],
      "name": "setBuyPrice",
      "outputs": [
        {
          "internalType": "uint256",
          "name": "",
          "type": "uint256"
        }
      ],
      "stateMutability": "nonpayable",
      "type": "function"
    },
    {
      "inputs": [],
      "name": "buyNft",
      "outputs": [
        {
          "internalType": "address",
          "name": "",
          "type": "address"
        }
      ],
      "stateMutability": "payable",
      "type": "function",
      "payable": true
    },
    {
      "inputs": [
        {
          "internalType": "address",
          "name": "_investor",
          "type": "address"
        },
        {
          "internalType": "uint256",
          "name": "_amount",
          "type": "uint256"
        }
      ],
      "name": "updateSales",
      "outputs": [],
      "stateMutability": "nonpayable",
      "type": "function"
    },
    {
      "inputs": [
        {
          "internalType": "uint256",
          "name": "_discount",
          "type": "uint256"
        }
      ],
      "name": "_alotDiscount",
      "outputs": [
        {
          "internalType": "uint256",
          "name": "",
          "type": "uint256"
        }
      ],
      "stateMutability": "nonpayable",
      "type": "function"
    },
    {
      "inputs": [],
      "name": "_checkDiscount",
      "outputs": [
        {
          "internalType": "uint256",
          "name": "",
          "type": "uint256"
        }
      ],
      "stateMutability": "view",
      "type": "function",
      "constant": true
    },
    {
      "inputs": [],
      "name": "setNeon",
      "outputs": [
        {
          "internalType": "enum NFT.NftLevel",
          "name": "",
          "type": "uint8"
        }
      ],
      "stateMutability": "nonpayable",
      "type": "function"
    },
    {
      "inputs": [],
      "name": "setFire",
      "outputs": [
        {
          "internalType": "enum NFT.NftLevel",
          "name": "",
          "type": "uint8"
        }
      ],
      "stateMutability": "nonpayable",
      "type": "function"
    },
    {
      "inputs": [],
      "name": "setPlasma",
      "outputs": [
        {
          "internalType": "enum NFT.NftLevel",
          "name": "",
          "type": "uint8"
        }
      ],
      "stateMutability": "nonpayable",
      "type": "function"
    },
    {
      "inputs": [],
      "name": "setAtomic",
      "outputs": [
        {
          "internalType": "enum NFT.NftLevel",
          "name": "",
          "type": "uint8"
        }
      ],
      "stateMutability": "nonpayable",
      "type": "function"
    },
    {
      "inputs": [],
      "name": "setSuperNova",
      "outputs": [
        {
          "internalType": "enum NFT.NftLevel",
          "name": "",
          "type": "uint8"
        }
      ],
      "stateMutability": "nonpayable",
      "type": "function"
    },
    {
      "inputs": [],
      "name": "nextStage",
      "outputs": [],
      "stateMutability": "nonpayable",
      "type": "function"
    },
    {
      "inputs": [],
      "name": "getDefaultChoice",
      "outputs": [
        {
          "internalType": "uint256",
          "name": "",
          "type": "uint256"
        }
      ],
      "stateMutability": "pure",
      "type": "function",
      "constant": true
    },
    {
      "inputs": [],
      "name": "currentLevel",
      "outputs": [
        {
          "internalType": "uint256",
          "name": "",
          "type": "uint256"
        }
      ],
      "stateMutability": "view",
      "type": "function",
      "constant": true
    }
  ],
  "bytecode": "0x60806040526040516200484c3803806200484c83398181016040528101906200002991906200026f565b806200003b816200006360201b60201c565b506200005c620000506200007f60201b60201c565b6200008760201b60201c565b5062000424565b80600290805190602001906200007b9291906200014d565b5050565b600033905090565b6000600360009054906101000a900473ffffffffffffffffffffffffffffffffffffffff16905081600360006101000a81548173ffffffffffffffffffffffffffffffffffffffff021916908373ffffffffffffffffffffffffffffffffffffffff1602179055508173ffffffffffffffffffffffffffffffffffffffff168173ffffffffffffffffffffffffffffffffffffffff167f8be0079c531659141344cd1fd0a4f28419497f9722a3daafe3b4186f6b6457e060405160405180910390a35050565b8280546200015b9062000349565b90600052602060002090601f0160209004810192826200017f5760008555620001cb565b82601f106200019a57805160ff1916838001178555620001cb565b82800160010185558215620001cb579182015b82811115620001ca578251825591602001919060010190620001ad565b5b509050620001da9190620001de565b5090565b5b80821115620001f9576000816000905550600101620001df565b5090565b6000620002146200020e84620002dd565b620002b4565b9050828152602081018484840111156200022d57600080fd5b6200023a84828562000313565b509392505050565b600082601f8301126200025457600080fd5b815162000266848260208601620001fd565b91505092915050565b6000602082840312156200028257600080fd5b600082015167ffffffffffffffff8111156200029d57600080fd5b620002ab8482850162000242565b91505092915050565b6000620002c0620002d3565b9050620002ce82826200037f565b919050565b6000604051905090565b600067ffffffffffffffff821115620002fb57620002fa620003e4565b5b620003068262000413565b9050602081019050919050565b60005b838110156200033357808201518184015260208101905062000316565b8381111562000343576000848401525b50505050565b600060028204905060018216806200036257607f821691505b60208210811415620003795762000378620003b5565b5b50919050565b6200038a8262000413565b810181811067ffffffffffffffff82111715620003ac57620003ab620003e4565b5b80604052505050565b7f4e487b7100000000000000000000000000000000000000000000000000000000600052602260045260246000fd5b7f4e487b7100000000000000000000000000000000000000000000000000000000600052604160045260246000fd5b6000601f19601f8301169050919050565b61441880620004346000396000f3fe6080604052600436106101d75760003560e01c8063843f725811610102578063ee3743ab11610095578063f242432a11610064578063f242432a146106ed578063f2fde38b14610716578063f5298aca1461073f578063f609ca2014610768576101d7565b8063ee3743ab14610645578063f03445011461065c578063f1425eb414610685578063f23a6e61146106b0576101d7565b8063a22cb465116100d1578063a22cb46514610584578063bc197c81146105ad578063e69257c2146105ea578063e985e9c514610608576101d7565b8063843f7258146104c65780638da5cb5b146104f1578063963954711461051c5780639dc4b9c914610559576101d7565b80633529280b1161017a57806363ae8d6c1161014957806363ae8d6c1461041e5780636b20c4541461045b578063715018a6146104845780637219e6351461049b576101d7565b80633529280b1461034d5780633febd87d1461038b57806341b80365146103b65780634e1273f4146103e1576101d7565b80630e89341c116101b65780630e89341c14610281578063156e29f6146102be578063286d2e3a146102e75780632eb2c2d614610324576101d7565b8062fdd58e146101dc57806301ffc9a7146102195780630bdef63e14610256575b600080fd5b3480156101e857600080fd5b5061020360048036038101906101fe9190613120565b610793565b60405161021091906139d6565b60405180910390f35b34801561022557600080fd5b50610240600480360381019061023b9190613217565b61085c565b60405161024d9190613763565b60405180910390f35b34801561026257600080fd5b5061026b61086e565b60405161027891906139d6565b60405180910390f35b34801561028d57600080fd5b506102a860048036038101906102a39190613269565b610878565b6040516102b591906137b4565b60405180910390f35b3480156102ca57600080fd5b506102e560048036038101906102e0919061315c565b61090c565b005b3480156102f357600080fd5b5061030e60048036038101906103099190612eb2565b6109a8565b60405161031b9190613604565b60405180910390f35b34801561033057600080fd5b5061034b60048036038101906103469190612f17565b610a91565b005b34801561035957600080fd5b50610374600480360381019061036f9190613269565b610b32565b6040516103829291906136e1565b60405180910390f35b34801561039757600080fd5b506103a0610b86565b6040516103ad9190613799565b60405180910390f35b3480156103c257600080fd5b506103cb610bee565b6040516103d89190613799565b60405180910390f35b3480156103ed57600080fd5b50610408600480360381019061040391906131ab565b610c56565b604051610415919061370a565b60405180910390f35b34801561042a57600080fd5b5061044560048036038101906104409190613269565b610e07565b60405161045291906139d6565b60405180910390f35b34801561046757600080fd5b50610482600480360381019061047d9190613065565b610e96565b005b34801561049057600080fd5b50610499610f33565b005b3480156104a757600080fd5b506104b0610fbb565b6040516104bd9190613799565b60405180910390f35b3480156104d257600080fd5b506104db611022565b6040516104e891906139d6565b60405180910390f35b3480156104fd57600080fd5b50610506611062565b6040516105139190613604565b60405180910390f35b34801561052857600080fd5b50610543600480360381019061053e9190613269565b61108c565b60405161055091906139d6565b60405180910390f35b34801561056557600080fd5b5061056e61111b565b60405161057b91906139d6565b60405180910390f35b34801561059057600080fd5b506105ab60048036038101906105a691906130e4565b61116a565b005b3480156105b957600080fd5b506105d460048036038101906105cf9190612f17565b611180565b6040516105e1919061377e565b60405180910390f35b6105f2611195565b6040516105ff9190613604565b60405180910390f35b34801561061457600080fd5b5061062f600480360381019061062a9190612edb565b611221565b60405161063c9190613763565b60405180910390f35b34801561065157600080fd5b5061065a6112b5565b005b34801561066857600080fd5b50610683600480360381019061067e9190613120565b61140e565b005b34801561069157600080fd5b5061069a6114d5565b6040516106a79190613799565b60405180910390f35b3480156106bc57600080fd5b506106d760048036038101906106d29190612fd6565b61153d565b6040516106e4919061377e565b60405180910390f35b3480156106f957600080fd5b50610714600480360381019061070f9190612fd6565b611552565b005b34801561072257600080fd5b5061073d60048036038101906107389190612eb2565b611566565b005b34801561074b57600080fd5b506107666004803603810190610761919061315c565b61165e565b005b34801561077457600080fd5b5061077d6116fb565b60405161078a9190613799565b60405180910390f35b60008073ffffffffffffffffffffffffffffffffffffffff168373ffffffffffffffffffffffffffffffffffffffff161415610804576040517f08c379a00000000000000000000000000000000000000000000000000000000081526004016107fb90613816565b60405180910390fd5b60008083815260200190815260200160002060008473ffffffffffffffffffffffffffffffffffffffff1673ffffffffffffffffffffffffffffffffffffffff16815260200190815260200160002054905092915050565b600061086782611763565b9050919050565b6000600654905090565b60606002805461088790613c6a565b80601f01602080910402602001604051908101604052809291908181526020018280546108b390613c6a565b80156109005780601f106108d557610100808354040283529160200191610900565b820191906000526020600020905b8154815290600101906020018083116108e357829003601f168201915b50505050509050919050565b6109146117dd565b73ffffffffffffffffffffffffffffffffffffffff16610932611062565b73ffffffffffffffffffffffffffffffffffffffff1614610988576040517f08c379a000000000000000000000000000000000000000000000000000000000815260040161097f90613916565b60405180910390fd5b6109a3838383604051806020016040528060008152506117e5565b505050565b60006109b26117dd565b73ffffffffffffffffffffffffffffffffffffffff166109d0611062565b73ffffffffffffffffffffffffffffffffffffffff1614610a26576040517f08c379a0000000000000000000000000000000000000000000000000000000008152600401610a1d90613916565b60405180910390fd5b81600460006101000a81548173ffffffffffffffffffffffffffffffffffffffff021916908373ffffffffffffffffffffffffffffffffffffffff160217905550600460009054906101000a900473ffffffffffffffffffffffffffffffffffffffff169050919050565b610a996117dd565b73ffffffffffffffffffffffffffffffffffffffff168573ffffffffffffffffffffffffffffffffffffffff161480610adf5750610ade85610ad96117dd565b611221565b5b610b1e576040517f08c379a0000000000000000000000000000000000000000000000000000000008152600401610b15906138b6565b60405180910390fd5b610b2b858585858561197b565b5050505050565b600a8181548110610b4257600080fd5b90600052602060002090600202016000915090508060000160009054906101000a900473ffffffffffffffffffffffffffffffffffffffff16908060010154905082565b60006004600c60006101000a81548160ff02191690836004811115610bd4577f4e487b7100000000000000000000000000000000000000000000000000000000600052602160045260246000fd5b0217905550600c60009054906101000a900460ff16905090565b60006002600c60006101000a81548160ff02191690836004811115610c3c577f4e487b7100000000000000000000000000000000000000000000000000000000600052602160045260246000fd5b0217905550600c60009054906101000a900460ff16905090565b60608151835114610c9c576040517f08c379a0000000000000000000000000000000000000000000000000000000008152600401610c9390613956565b60405180910390fd5b6000835167ffffffffffffffff811115610cdf577f4e487b7100000000000000000000000000000000000000000000000000000000600052604160045260246000fd5b604051908082528060200260200182016040528015610d0d5781602001602082028036833780820191505090505b50905060005b8451811015610dfc57610da6858281518110610d58577f4e487b7100000000000000000000000000000000000000000000000000000000600052603260045260246000fd5b6020026020010151858381518110610d99577f4e487b7100000000000000000000000000000000000000000000000000000000600052603260045260246000fd5b6020026020010151610793565b828281518110610ddf577f4e487b7100000000000000000000000000000000000000000000000000000000600052603260045260246000fd5b60200260200101818152505080610df590613ccd565b9050610d13565b508091505092915050565b6000610e116117dd565b73ffffffffffffffffffffffffffffffffffffffff16610e2f611062565b73ffffffffffffffffffffffffffffffffffffffff1614610e85576040517f08c379a0000000000000000000000000000000000000000000000000000000008152600401610e7c90613916565b60405180910390fd5b816005819055506005549050919050565b610e9e6117dd565b73ffffffffffffffffffffffffffffffffffffffff168373ffffffffffffffffffffffffffffffffffffffff161480610ee45750610ee383610ede6117dd565b611221565b5b610f23576040517f08c379a0000000000000000000000000000000000000000000000000000000008152600401610f1a90613876565b60405180910390fd5b610f2e838383611cdb565b505050565b610f3b6117dd565b73ffffffffffffffffffffffffffffffffffffffff16610f59611062565b73ffffffffffffffffffffffffffffffffffffffff1614610faf576040517f08c379a0000000000000000000000000000000000000000000000000000000008152600401610fa690613916565b60405180910390fd5b610fb96000611fd8565b565b600080600c60006101000a81548160ff02191690836004811115611008577f4e487b7100000000000000000000000000000000000000000000000000000000600052602160045260246000fd5b0217905550600c60009054906101000a900460ff16905090565b600080600481111561105d577f4e487b7100000000000000000000000000000000000000000000000000000000600052602160045260246000fd5b905090565b6000600360009054906101000a900473ffffffffffffffffffffffffffffffffffffffff16905090565b60006110966117dd565b73ffffffffffffffffffffffffffffffffffffffff166110b4611062565b73ffffffffffffffffffffffffffffffffffffffff161461110a576040517f08c379a000000000000000000000000000000000000000000000000000000000815260040161110190613916565b60405180910390fd5b816006819055506006549050919050565b6000600c60009054906101000a900460ff166004811115611165577f4e487b7100000000000000000000000000000000000000000000000000000000600052602160045260246000fd5b905090565b61117c6111756117dd565b838361209e565b5050565b600063bc197c8160e01b905095945050505050565b60006005543410156111dc576040517f08c379a00000000000000000000000000000000000000000000000000000000081526004016111d390613976565b60405180910390fd5b61121b600460009054906101000a900473ffffffffffffffffffffffffffffffffffffffff163360018060405180602001604052806000815250611552565b33905090565b6000600160008473ffffffffffffffffffffffffffffffffffffffff1673ffffffffffffffffffffffffffffffffffffffff16815260200190815260200160002060008373ffffffffffffffffffffffffffffffffffffffff1673ffffffffffffffffffffffffffffffffffffffff16815260200190815260200160002060009054906101000a900460ff16905092915050565b6112bd6117dd565b73ffffffffffffffffffffffffffffffffffffffff166112db611062565b73ffffffffffffffffffffffffffffffffffffffff1614611331576040517f08c379a000000000000000000000000000000000000000000000000000000000815260040161132890613916565b60405180910390fd5b6001600c60009054906101000a900460ff16600481111561137b577f4e487b7100000000000000000000000000000000000000000000000000000000600052602160045260246000fd5b6113859190613b39565b60048111156113bd577f4e487b7100000000000000000000000000000000000000000000000000000000600052602160045260246000fd5b600c60006101000a81548160ff02191690836004811115611407577f4e487b7100000000000000000000000000000000000000000000000000000000600052602160045260246000fd5b0217905550565b600061141b836001610793565b905060008111156114d057600a60405180604001604052808573ffffffffffffffffffffffffffffffffffffffff16815260200184815250908060018154018082558091505060019003906000526020600020906002020160009091909190915060008201518160000160006101000a81548173ffffffffffffffffffffffffffffffffffffffff021916908373ffffffffffffffffffffffffffffffffffffffff1602179055506020820151816001015550505b505050565b60006003600c60006101000a81548160ff02191690836004811115611523577f4e487b7100000000000000000000000000000000000000000000000000000000600052602160045260246000fd5b0217905550600c60009054906101000a900460ff16905090565b600063f23a6e6160e01b905095945050505050565b61155f858585858561220b565b5050505050565b61156e6117dd565b73ffffffffffffffffffffffffffffffffffffffff1661158c611062565b73ffffffffffffffffffffffffffffffffffffffff16146115e2576040517f08c379a00000000000000000000000000000000000000000000000000000000081526004016115d990613916565b60405180910390fd5b600073ffffffffffffffffffffffffffffffffffffffff168173ffffffffffffffffffffffffffffffffffffffff161415611652576040517f08c379a000000000000000000000000000000000000000000000000000000000815260040161164990613836565b60405180910390fd5b61165b81611fd8565b50565b6116666117dd565b73ffffffffffffffffffffffffffffffffffffffff168373ffffffffffffffffffffffffffffffffffffffff1614806116ac57506116ab836116a66117dd565b611221565b5b6116eb576040517f08c379a00000000000000000000000000000000000000000000000000000000081526004016116e290613876565b60405180910390fd5b6116f683838361248d565b505050565b60006001600c60006101000a81548160ff02191690836004811115611749577f4e487b7100000000000000000000000000000000000000000000000000000000600052602160045260246000fd5b0217905550600c60009054906101000a900460ff16905090565b60007f4e2312e0000000000000000000000000000000000000000000000000000000007bffffffffffffffffffffffffffffffffffffffffffffffffffffffff1916827bffffffffffffffffffffffffffffffffffffffffffffffffffffffff191614806117d657506117d5826126aa565b5b9050919050565b600033905090565b600073ffffffffffffffffffffffffffffffffffffffff168473ffffffffffffffffffffffffffffffffffffffff161415611855576040517f08c379a000000000000000000000000000000000000000000000000000000000815260040161184c906139b6565b60405180910390fd5b600061185f6117dd565b9050611880816000876118718861278c565b61187a8861278c565b87612852565b8260008086815260200190815260200160002060008773ffffffffffffffffffffffffffffffffffffffff1673ffffffffffffffffffffffffffffffffffffffff16815260200190815260200160002060008282546118df9190613b39565b925050819055508473ffffffffffffffffffffffffffffffffffffffff16600073ffffffffffffffffffffffffffffffffffffffff168273ffffffffffffffffffffffffffffffffffffffff167fc3d58168c5ae7397731d063d5bbf3d657854427343f4c083240f7aacaa2d0f62878760405161195d9291906139f1565b60405180910390a46119748160008787878761285a565b5050505050565b81518351146119bf576040517f08c379a00000000000000000000000000000000000000000000000000000000081526004016119b690613996565b60405180910390fd5b600073ffffffffffffffffffffffffffffffffffffffff168473ffffffffffffffffffffffffffffffffffffffff161415611a2f576040517f08c379a0000000000000000000000000000000000000000000000000000000008152600401611a2690613896565b60405180910390fd5b6000611a396117dd565b9050611a49818787878787612852565b60005b8451811015611c46576000858281518110611a90577f4e487b7100000000000000000000000000000000000000000000000000000000600052603260045260246000fd5b602002602001015190506000858381518110611ad5577f4e487b7100000000000000000000000000000000000000000000000000000000600052603260045260246000fd5b60200260200101519050600080600084815260200190815260200160002060008b73ffffffffffffffffffffffffffffffffffffffff1673ffffffffffffffffffffffffffffffffffffffff16815260200190815260200160002054905081811015611b76576040517f08c379a0000000000000000000000000000000000000000000000000000000008152600401611b6d906138f6565b60405180910390fd5b81810360008085815260200190815260200160002060008c73ffffffffffffffffffffffffffffffffffffffff1673ffffffffffffffffffffffffffffffffffffffff168152602001908152602001600020819055508160008085815260200190815260200160002060008b73ffffffffffffffffffffffffffffffffffffffff1673ffffffffffffffffffffffffffffffffffffffff1681526020019081526020016000206000828254611c2b9190613b39565b9250508190555050505080611c3f90613ccd565b9050611a4c565b508473ffffffffffffffffffffffffffffffffffffffff168673ffffffffffffffffffffffffffffffffffffffff168273ffffffffffffffffffffffffffffffffffffffff167f4a39dc06d4c0dbc64b70af90fd698a233a518aa5d07e595d983b8c0526c8f7fb8787604051611cbd92919061372c565b60405180910390a4611cd3818787878787612a41565b505050505050565b600073ffffffffffffffffffffffffffffffffffffffff168373ffffffffffffffffffffffffffffffffffffffff161415611d4b576040517f08c379a0000000000000000000000000000000000000000000000000000000008152600401611d42906138d6565b60405180910390fd5b8051825114611d8f576040517f08c379a0000000000000000000000000000000000000000000000000000000008152600401611d8690613996565b60405180910390fd5b6000611d996117dd565b9050611db981856000868660405180602001604052806000815250612852565b60005b8351811015611f52576000848281518110611e00577f4e487b7100000000000000000000000000000000000000000000000000000000600052603260045260246000fd5b602002602001015190506000848381518110611e45577f4e487b7100000000000000000000000000000000000000000000000000000000600052603260045260246000fd5b60200260200101519050600080600084815260200190815260200160002060008973ffffffffffffffffffffffffffffffffffffffff1673ffffffffffffffffffffffffffffffffffffffff16815260200190815260200160002054905081811015611ee6576040517f08c379a0000000000000000000000000000000000000000000000000000000008152600401611edd90613856565b60405180910390fd5b81810360008085815260200190815260200160002060008a73ffffffffffffffffffffffffffffffffffffffff1673ffffffffffffffffffffffffffffffffffffffff168152602001908152602001600020819055505050508080611f4a90613ccd565b915050611dbc565b50600073ffffffffffffffffffffffffffffffffffffffff168473ffffffffffffffffffffffffffffffffffffffff168273ffffffffffffffffffffffffffffffffffffffff167f4a39dc06d4c0dbc64b70af90fd698a233a518aa5d07e595d983b8c0526c8f7fb8686604051611fca92919061372c565b60405180910390a450505050565b6000600360009054906101000a900473ffffffffffffffffffffffffffffffffffffffff16905081600360006101000a81548173ffffffffffffffffffffffffffffffffffffffff021916908373ffffffffffffffffffffffffffffffffffffffff1602179055508173ffffffffffffffffffffffffffffffffffffffff168173ffffffffffffffffffffffffffffffffffffffff167f8be0079c531659141344cd1fd0a4f28419497f9722a3daafe3b4186f6b6457e060405160405180910390a35050565b8173ffffffffffffffffffffffffffffffffffffffff168373ffffffffffffffffffffffffffffffffffffffff16141561210d576040517f08c379a000000000000000000000000000000000000000000000000000000000815260040161210490613936565b60405180910390fd5b80600160008573ffffffffffffffffffffffffffffffffffffffff1673ffffffffffffffffffffffffffffffffffffffff16815260200190815260200160002060008473ffffffffffffffffffffffffffffffffffffffff1673ffffffffffffffffffffffffffffffffffffffff16815260200190815260200160002060006101000a81548160ff0219169083151502179055508173ffffffffffffffffffffffffffffffffffffffff168373ffffffffffffffffffffffffffffffffffffffff167f17307eab39ab6107e8899845ad3d59bd9653f200f220920489ca2b5937696c31836040516121fe9190613763565b60405180910390a3505050565b600073ffffffffffffffffffffffffffffffffffffffff168473ffffffffffffffffffffffffffffffffffffffff16141561227b576040517f08c379a000000000000000000000000000000000000000000000000000000000815260040161227290613896565b60405180910390fd5b60006122856117dd565b90506122a58187876122968861278c565b61229f8861278c565b87612852565b600080600086815260200190815260200160002060008873ffffffffffffffffffffffffffffffffffffffff1673ffffffffffffffffffffffffffffffffffffffff1681526020019081526020016000205490508381101561233c576040517f08c379a0000000000000000000000000000000000000000000000000000000008152600401612333906138f6565b60405180910390fd5b83810360008087815260200190815260200160002060008973ffffffffffffffffffffffffffffffffffffffff1673ffffffffffffffffffffffffffffffffffffffff168152602001908152602001600020819055508360008087815260200190815260200160002060008873ffffffffffffffffffffffffffffffffffffffff1673ffffffffffffffffffffffffffffffffffffffff16815260200190815260200160002060008282546123f19190613b39565b925050819055508573ffffffffffffffffffffffffffffffffffffffff168773ffffffffffffffffffffffffffffffffffffffff168373ffffffffffffffffffffffffffffffffffffffff167fc3d58168c5ae7397731d063d5bbf3d657854427343f4c083240f7aacaa2d0f62888860405161246e9291906139f1565b60405180910390a461248482888888888861285a565b50505050505050565b600073ffffffffffffffffffffffffffffffffffffffff168373ffffffffffffffffffffffffffffffffffffffff1614156124fd576040517f08c379a00000000000000000000000000000000000000000000000000000000081526004016124f4906138d6565b60405180910390fd5b60006125076117dd565b9050612537818560006125198761278c565b6125228761278c565b60405180602001604052806000815250612852565b600080600085815260200190815260200160002060008673ffffffffffffffffffffffffffffffffffffffff1673ffffffffffffffffffffffffffffffffffffffff168152602001908152602001600020549050828110156125ce576040517f08c379a00000000000000000000000000000000000000000000000000000000081526004016125c590613856565b60405180910390fd5b82810360008086815260200190815260200160002060008773ffffffffffffffffffffffffffffffffffffffff1673ffffffffffffffffffffffffffffffffffffffff16815260200190815260200160002081905550600073ffffffffffffffffffffffffffffffffffffffff168573ffffffffffffffffffffffffffffffffffffffff168373ffffffffffffffffffffffffffffffffffffffff167fc3d58168c5ae7397731d063d5bbf3d657854427343f4c083240f7aacaa2d0f62878760405161269b9291906139f1565b60405180910390a45050505050565b60007fd9b67a26000000000000000000000000000000000000000000000000000000007bffffffffffffffffffffffffffffffffffffffffffffffffffffffff1916827bffffffffffffffffffffffffffffffffffffffffffffffffffffffff1916148061277557507f0e89341c000000000000000000000000000000000000000000000000000000007bffffffffffffffffffffffffffffffffffffffffffffffffffffffff1916827bffffffffffffffffffffffffffffffffffffffffffffffffffffffff1916145b80612785575061278482612c28565b5b9050919050565b60606000600167ffffffffffffffff8111156127d1577f4e487b7100000000000000000000000000000000000000000000000000000000600052604160045260246000fd5b6040519080825280602002602001820160405280156127ff5781602001602082028036833780820191505090505b509050828160008151811061283d577f4e487b7100000000000000000000000000000000000000000000000000000000600052603260045260246000fd5b60200260200101818152505080915050919050565b505050505050565b6128798473ffffffffffffffffffffffffffffffffffffffff16612c92565b15612a39578373ffffffffffffffffffffffffffffffffffffffff1663f23a6e6187878686866040518663ffffffff1660e01b81526004016128bf959493929190613687565b602060405180830381600087803b1580156128d957600080fd5b505af192505050801561290a57506040513d601f19601f820116820180604052508101906129079190613240565b60015b6129b057612916613dd2565b806308c379a01415612973575061292b6142dc565b806129365750612975565b806040517f08c379a000000000000000000000000000000000000000000000000000000000815260040161296a91906137b4565b60405180910390fd5b505b6040517f08c379a00000000000000000000000000000000000000000000000000000000081526004016129a7906137d6565b60405180910390fd5b63f23a6e6160e01b7bffffffffffffffffffffffffffffffffffffffffffffffffffffffff1916817bffffffffffffffffffffffffffffffffffffffffffffffffffffffff191614612a37576040517f08c379a0000000000000000000000000000000000000000000000000000000008152600401612a2e906137f6565b60405180910390fd5b505b505050505050565b612a608473ffffffffffffffffffffffffffffffffffffffff16612c92565b15612c20578373ffffffffffffffffffffffffffffffffffffffff1663bc197c8187878686866040518663ffffffff1660e01b8152600401612aa695949392919061361f565b602060405180830381600087803b158015612ac057600080fd5b505af1925050508015612af157506040513d601f19601f82011682018060405250810190612aee9190613240565b60015b612b9757612afd613dd2565b806308c379a01415612b5a5750612b126142dc565b80612b1d5750612b5c565b806040517f08c379a0000000000000000000000000000000000000000000000000000000008152600401612b5191906137b4565b60405180910390fd5b505b6040517f08c379a0000000000000000000000000000000000000000000000000000000008152600401612b8e906137d6565b60405180910390fd5b63bc197c8160e01b7bffffffffffffffffffffffffffffffffffffffffffffffffffffffff1916817bffffffffffffffffffffffffffffffffffffffffffffffffffffffff191614612c1e576040517f08c379a0000000000000000000000000000000000000000000000000000000008152600401612c15906137f6565b60405180910390fd5b505b505050505050565b60007f01ffc9a7000000000000000000000000000000000000000000000000000000007bffffffffffffffffffffffffffffffffffffffffffffffffffffffff1916827bffffffffffffffffffffffffffffffffffffffffffffffffffffffff1916149050919050565b6000808273ffffffffffffffffffffffffffffffffffffffff163b119050919050565b6000612cc8612cc384613a3f565b613a1a565b90508083825260208201905082856020860282011115612ce757600080fd5b60005b85811015612d175781612cfd8882612dcb565b845260208401935060208301925050600181019050612cea565b5050509392505050565b6000612d34612d2f84613a6b565b613a1a565b90508083825260208201905082856020860282011115612d5357600080fd5b60005b85811015612d835781612d698882612e9d565b845260208401935060208301925050600181019050612d56565b5050509392505050565b6000612da0612d9b84613a97565b613a1a565b905082815260208101848484011115612db857600080fd5b612dc3848285613c28565b509392505050565b600081359050612dda81614386565b92915050565b600082601f830112612df157600080fd5b8135612e01848260208601612cb5565b91505092915050565b600082601f830112612e1b57600080fd5b8135612e2b848260208601612d21565b91505092915050565b600081359050612e438161439d565b92915050565b600081359050612e58816143b4565b92915050565b600081519050612e6d816143b4565b92915050565b600082601f830112612e8457600080fd5b8135612e94848260208601612d8d565b91505092915050565b600081359050612eac816143cb565b92915050565b600060208284031215612ec457600080fd5b6000612ed284828501612dcb565b91505092915050565b60008060408385031215612eee57600080fd5b6000612efc85828601612dcb565b9250506020612f0d85828601612dcb565b9150509250929050565b600080600080600060a08688031215612f2f57600080fd5b6000612f3d88828901612dcb565b9550506020612f4e88828901612dcb565b945050604086013567ffffffffffffffff811115612f6b57600080fd5b612f7788828901612e0a565b935050606086013567ffffffffffffffff811115612f9457600080fd5b612fa088828901612e0a565b925050608086013567ffffffffffffffff811115612fbd57600080fd5b612fc988828901612e73565b9150509295509295909350565b600080600080600060a08688031215612fee57600080fd5b6000612ffc88828901612dcb565b955050602061300d88828901612dcb565b945050604061301e88828901612e9d565b935050606061302f88828901612e9d565b925050608086013567ffffffffffffffff81111561304c57600080fd5b61305888828901612e73565b9150509295509295909350565b60008060006060848603121561307a57600080fd5b600061308886828701612dcb565b935050602084013567ffffffffffffffff8111156130a557600080fd5b6130b186828701612e0a565b925050604084013567ffffffffffffffff8111156130ce57600080fd5b6130da86828701612e0a565b9150509250925092565b600080604083850312156130f757600080fd5b600061310585828601612dcb565b925050602061311685828601612e34565b9150509250929050565b6000806040838503121561313357600080fd5b600061314185828601612dcb565b925050602061315285828601612e9d565b9150509250929050565b60008060006060848603121561317157600080fd5b600061317f86828701612dcb565b935050602061319086828701612e9d565b92505060406131a186828701612e9d565b9150509250925092565b600080604083850312156131be57600080fd5b600083013567ffffffffffffffff8111156131d857600080fd5b6131e485828601612de0565b925050602083013567ffffffffffffffff81111561320157600080fd5b61320d85828601612e0a565b9150509250929050565b60006020828403121561322957600080fd5b600061323784828501612e49565b91505092915050565b60006020828403121561325257600080fd5b600061326084828501612e5e565b91505092915050565b60006020828403121561327b57600080fd5b600061328984828501612e9d565b91505092915050565b600061329e83836135e6565b60208301905092915050565b6132b381613b8f565b82525050565b60006132c482613ad8565b6132ce8185613b06565b93506132d983613ac8565b8060005b8381101561330a5781516132f18882613292565b97506132fc83613af9565b9250506001810190506132dd565b5085935050505092915050565b61332081613ba1565b82525050565b61332f81613bad565b82525050565b600061334082613ae3565b61334a8185613b17565b935061335a818560208601613c37565b61336381613df4565b840191505092915050565b61337781613c16565b82525050565b600061338882613aee565b6133928185613b28565b93506133a2818560208601613c37565b6133ab81613df4565b840191505092915050565b60006133c3603483613b28565b91506133ce82613e12565b604082019050919050565b60006133e6602883613b28565b91506133f182613e61565b604082019050919050565b6000613409602b83613b28565b915061341482613eb0565b604082019050919050565b600061342c602683613b28565b915061343782613eff565b604082019050919050565b600061344f602483613b28565b915061345a82613f4e565b604082019050919050565b6000613472602983613b28565b915061347d82613f9d565b604082019050919050565b6000613495602583613b28565b91506134a082613fec565b604082019050919050565b60006134b8603283613b28565b91506134c38261403b565b604082019050919050565b60006134db602383613b28565b91506134e68261408a565b604082019050919050565b60006134fe602a83613b28565b9150613509826140d9565b604082019050919050565b6000613521602083613b28565b915061352c82614128565b602082019050919050565b6000613544602983613b28565b915061354f82614151565b604082019050919050565b6000613567602983613b28565b9150613572826141a0565b604082019050919050565b600061358a602183613b28565b9150613595826141ef565b604082019050919050565b60006135ad602883613b28565b91506135b88261423e565b604082019050919050565b60006135d0602183613b28565b91506135db8261428d565b604082019050919050565b6135ef81613c0c565b82525050565b6135fe81613c0c565b82525050565b600060208201905061361960008301846132aa565b92915050565b600060a08201905061363460008301886132aa565b61364160208301876132aa565b818103604083015261365381866132b9565b9050818103606083015261366781856132b9565b9050818103608083015261367b8184613335565b90509695505050505050565b600060a08201905061369c60008301886132aa565b6136a960208301876132aa565b6136b660408301866135f5565b6136c360608301856135f5565b81810360808301526136d58184613335565b90509695505050505050565b60006040820190506136f660008301856132aa565b61370360208301846135f5565b9392505050565b6000602082019050818103600083015261372481846132b9565b905092915050565b6000604082019050818103600083015261374681856132b9565b9050818103602083015261375a81846132b9565b90509392505050565b60006020820190506137786000830184613317565b92915050565b60006020820190506137936000830184613326565b92915050565b60006020820190506137ae600083018461336e565b92915050565b600060208201905081810360008301526137ce818461337d565b905092915050565b600060208201905081810360008301526137ef816133b6565b9050919050565b6000602082019050818103600083015261380f816133d9565b9050919050565b6000602082019050818103600083015261382f816133fc565b9050919050565b6000602082019050818103600083015261384f8161341f565b9050919050565b6000602082019050818103600083015261386f81613442565b9050919050565b6000602082019050818103600083015261388f81613465565b9050919050565b600060208201905081810360008301526138af81613488565b9050919050565b600060208201905081810360008301526138cf816134ab565b9050919050565b600060208201905081810360008301526138ef816134ce565b9050919050565b6000602082019050818103600083015261390f816134f1565b9050919050565b6000602082019050818103600083015261392f81613514565b9050919050565b6000602082019050818103600083015261394f81613537565b9050919050565b6000602082019050818103600083015261396f8161355a565b9050919050565b6000602082019050818103600083015261398f8161357d565b9050919050565b600060208201905081810360008301526139af816135a0565b9050919050565b600060208201905081810360008301526139cf816135c3565b9050919050565b60006020820190506139eb60008301846135f5565b92915050565b6000604082019050613a0660008301856135f5565b613a1360208301846135f5565b9392505050565b6000613a24613a35565b9050613a308282613c9c565b919050565b6000604051905090565b600067ffffffffffffffff821115613a5a57613a59613da3565b5b602082029050602081019050919050565b600067ffffffffffffffff821115613a8657613a85613da3565b5b602082029050602081019050919050565b600067ffffffffffffffff821115613ab257613ab1613da3565b5b613abb82613df4565b9050602081019050919050565b6000819050602082019050919050565b600081519050919050565b600081519050919050565b600081519050919050565b6000602082019050919050565b600082825260208201905092915050565b600082825260208201905092915050565b600082825260208201905092915050565b6000613b4482613c0c565b9150613b4f83613c0c565b9250827fffffffffffffffffffffffffffffffffffffffffffffffffffffffffffffffff03821115613b8457613b83613d16565b5b828201905092915050565b6000613b9a82613bec565b9050919050565b60008115159050919050565b60007fffffffff0000000000000000000000000000000000000000000000000000000082169050919050565b6000819050613be782614372565b919050565b600073ffffffffffffffffffffffffffffffffffffffff82169050919050565b6000819050919050565b6000613c2182613bd9565b9050919050565b82818337600083830152505050565b60005b83811015613c55578082015181840152602081019050613c3a565b83811115613c64576000848401525b50505050565b60006002820490506001821680613c8257607f821691505b60208210811415613c9657613c95613d74565b5b50919050565b613ca582613df4565b810181811067ffffffffffffffff82111715613cc457613cc3613da3565b5b80604052505050565b6000613cd882613c0c565b91507fffffffffffffffffffffffffffffffffffffffffffffffffffffffffffffffff821415613d0b57613d0a613d16565b5b600182019050919050565b7f4e487b7100000000000000000000000000000000000000000000000000000000600052601160045260246000fd5b7f4e487b7100000000000000000000000000000000000000000000000000000000600052602160045260246000fd5b7f4e487b7100000000000000000000000000000000000000000000000000000000600052602260045260246000fd5b7f4e487b7100000000000000000000000000000000000000000000000000000000600052604160045260246000fd5b600060033d1115613df15760046000803e613dee600051613e05565b90505b90565b6000601f19601f8301169050919050565b60008160e01c9050919050565b7f455243313135353a207472616e7366657220746f206e6f6e204552433131353560008201527f526563656976657220696d706c656d656e746572000000000000000000000000602082015250565b7f455243313135353a204552433131353552656365697665722072656a6563746560008201527f6420746f6b656e73000000000000000000000000000000000000000000000000602082015250565b7f455243313135353a2062616c616e636520717565727920666f7220746865207a60008201527f65726f2061646472657373000000000000000000000000000000000000000000602082015250565b7f4f776e61626c653a206e6577206f776e657220697320746865207a65726f206160008201527f6464726573730000000000000000000000000000000000000000000000000000602082015250565b7f455243313135353a206275726e20616d6f756e7420657863656564732062616c60008201527f616e636500000000000000000000000000000000000000000000000000000000602082015250565b7f455243313135353a2063616c6c6572206973206e6f74206f776e6572206e6f7260008201527f20617070726f7665640000000000000000000000000000000000000000000000602082015250565b7f455243313135353a207472616e7366657220746f20746865207a65726f20616460008201527f6472657373000000000000000000000000000000000000000000000000000000602082015250565b7f455243313135353a207472616e736665722063616c6c6572206973206e6f742060008201527f6f776e6572206e6f7220617070726f7665640000000000000000000000000000602082015250565b7f455243313135353a206275726e2066726f6d20746865207a65726f206164647260008201527f6573730000000000000000000000000000000000000000000000000000000000602082015250565b7f455243313135353a20696e73756666696369656e742062616c616e636520666f60008201527f72207472616e7366657200000000000000000000000000000000000000000000602082015250565b7f4f776e61626c653a2063616c6c6572206973206e6f7420746865206f776e6572600082015250565b7f455243313135353a2073657474696e6720617070726f76616c2073746174757360008201527f20666f722073656c660000000000000000000000000000000000000000000000602082015250565b7f455243313135353a206163636f756e747320616e6420696473206c656e67746860008201527f206d69736d617463680000000000000000000000000000000000000000000000602082015250565b7f4e6f7420656e6f756768204554482073656e743b20636865636b20707269636560008201527f2100000000000000000000000000000000000000000000000000000000000000602082015250565b7f455243313135353a2069647320616e6420616d6f756e7473206c656e6774682060008201527f6d69736d61746368000000000000000000000000000000000000000000000000602082015250565b7f455243313135353a206d696e7420746f20746865207a65726f2061646472657360008201527f7300000000000000000000000000000000000000000000000000000000000000602082015250565b600060443d10156142ec5761436f565b6142f4613a35565b60043d036004823e80513d602482011167ffffffffffffffff8211171561431c57505061436f565b808201805167ffffffffffffffff81111561433a575050505061436f565b80602083010160043d03850181111561435757505050505061436f565b61436682602001850186613c9c565b82955050505050505b90565b6005811061438357614382613d45565b5b50565b61438f81613b8f565b811461439a57600080fd5b50565b6143a681613ba1565b81146143b157600080fd5b50565b6143bd81613bad565b81146143c857600080fd5b50565b6143d481613c0c565b81146143df57600080fd5b5056fea2646970667358221220c1ed5c33ca8bec5617f92b5d1810083ecb93329aa108961c0c7c5df72219ffb364736f6c63430008010033",
  "immutableReferences": {},
  "source": "// SPDX-License-Identifier: MIT\r\npragma solidity ^0.8.0;\r\n\r\nimport \"@openzeppelin/contracts/token/ERC1155/ERC1155.sol\";\r\nimport \"@openzeppelin/contracts/access/Ownable.sol\";\r\nimport \"@openzeppelin/contracts/utils/Counters.sol\";\r\nimport \"@openzeppelin/contracts/token/ERC1155/extensions/ERC1155Burnable.sol\";\r\nimport \"./NFT/ERC1155Holder.sol\";\r\n\r\ncontract NFT is ERC1155, Ownable, ERC1155Burnable , ERC1155Holder{ \r\n\r\naddress Contract;\r\nuint256 private buyPrice;\r\nuint256 private VoucherDiscount;\r\nmapping (address => uint256) Investor;\r\nmapping (uint256 => uint256) Discount;\r\nmapping (uint256 => uint256) checkLevels;\r\n\r\nstruct Books{\r\n  address Investor;\r\n  uint256 Discount;\r\n  uint256 checkLevels;\r\n}\r\n\r\nstruct nftSale{\r\n    address investor;\r\n    uint256 sAmount;\r\n} \r\nnftSale[] public Sales;\r\n\r\nBooks[] Discounted;\r\n\r\nconstructor(string memory uri_) ERC1155(uri_) payable {}\r\n\r\n\r\nfunction supportsInterface(bytes4 interfaceId) public view virtual override(ERC1155Receiver, ERC1155) returns (bool) {\r\n        return super.supportsInterface(interfaceId);\r\n}\r\n\r\nfunction setContractAddr(address _contract) external onlyOwner returns(address){\r\n    Contract = _contract;\r\n    return Contract;\r\n}\r\nfunction mint(address account, uint256 id, uint256 amount) external onlyOwner{\r\n        _mint(account, id, amount,\"\");\r\n}\r\n\r\nfunction setBuyPrice(uint256 _price) external onlyOwner returns(uint256){\r\n    buyPrice = _price;\r\n    return buyPrice;\r\n}\r\n\r\nfunction buyNft() public payable returns(address){\r\n    require(msg.value >= buyPrice, \"Not enough ETH sent; check price!\"); \r\n    safeTransferFrom(Contract,msg.sender, 1,1 ,\"\");\r\n    return msg.sender;\r\n}\r\n\r\nfunction updateSales(address _investor, uint256 _amount) public{\r\n  (uint256 checkerId ) = balanceOf(_investor , 1);\r\n  if (checkerId > 0 ) {\r\n    Sales.push(nftSale(_investor,_amount));\r\n  } \r\n}\r\n\r\nfunction _alotDiscount(uint256 _discount) external onlyOwner() returns(uint256) {\r\n    VoucherDiscount = _discount;\r\n    return(VoucherDiscount);\r\n}\r\n\r\nfunction _checkDiscount() public view returns(uint256){\r\n    return VoucherDiscount;\r\n}\r\n\r\nenum NftLevel{ Neon ,Fire, Plasma, Atomic , SuperNova}\r\n   NftLevel level;\r\n   NftLevel constant defaultChoice = NftLevel.Neon;\r\n\r\n    function setNeon() public returns(NftLevel){\r\n        //if(sAmount >= 4000){ level.neon}\r\n        level = NftLevel.Neon;\r\n        return level;\r\n    }\r\n\r\n    function setFire() public returns(NftLevel){\r\n        level = NftLevel.Fire;\r\n        return level;\r\n    }\r\n\r\n   function setPlasma() public returns (NftLevel) {\r\n      level = NftLevel.Plasma;\r\n      return level;\r\n   }\r\n\r\n   function setAtomic() public returns(NftLevel) {\r\n      level = NftLevel.Atomic;\r\n      return level;\r\n   }\r\n\r\n    function setSuperNova() public returns(NftLevel){   \r\n       level = NftLevel.SuperNova;\r\n       return level;\r\n    }\r\n    \r\n    function nextStage() external onlyOwner  {\r\n        level = NftLevel(uint(level) + 1);\r\n    }\r\n\r\n     function getDefaultChoice() public pure returns (uint) {\r\n      return uint(defaultChoice);\r\n   }\r\n\r\n   function currentLevel() public view returns(uint){\r\n       return uint(level);\r\n   }\r\n\r\n}  \r\n\r\n",
  "sourcePath": "D:\\3dHoudini\\contracts\\ForeverNFT.sol",
  "compiler": {
    "name": "solc",
    "version": "0.8.1+commit.df193b15.Emscripten.clang"
  },
  "schemaVersion": "3.4.7",
  "updatedAt": "2022-07-06T06:30:52.825Z",
  "networkType": "ethereum",
  "devdoc": {
    "kind": "dev",
    "methods": {
      "balanceOf(address,uint256)": {
        "details": "See {IERC1155-balanceOf}. Requirements: - `account` cannot be the zero address."
      },
      "balanceOfBatch(address[],uint256[])": {
        "details": "See {IERC1155-balanceOfBatch}. Requirements: - `accounts` and `ids` must have the same length."
      },
      "isApprovedForAll(address,address)": {
        "details": "See {IERC1155-isApprovedForAll}."
      },
      "owner()": {
        "details": "Returns the address of the current owner."
      },
      "renounceOwnership()": {
        "details": "Leaves the contract without owner. It will not be possible to call `onlyOwner` functions anymore. Can only be called by the current owner. NOTE: Renouncing ownership will leave the contract without an owner, thereby removing any functionality that is only available to the owner."
      },
      "safeBatchTransferFrom(address,address,uint256[],uint256[],bytes)": {
        "details": "See {IERC1155-safeBatchTransferFrom}."
      },
      "safeTransferFrom(address,address,uint256,uint256,bytes)": {
        "details": "See {IERC1155-safeTransferFrom}."
      },
      "setApprovalForAll(address,bool)": {
        "details": "See {IERC1155-setApprovalForAll}."
      },
      "transferOwnership(address)": {
        "details": "Transfers ownership of the contract to a new account (`newOwner`). Can only be called by the current owner."
      },
      "uri(uint256)": {
        "details": "See {IERC1155MetadataURI-uri}. This implementation returns the same URI for *all* token types. It relies on the token type ID substitution mechanism https://eips.ethereum.org/EIPS/eip-1155#metadata[defined in the EIP]. Clients calling this function must replace the `\\{id\\}` substring with the actual token type ID."
      }
    },
    "version": 1
  },
  "userdoc": {
    "kind": "user",
    "methods": {},
    "version": 1
  }
}